{
  "_format": "hh-sol-artifact-1",
  "contractName": "TransferNft",
  "sourceName": "contracts/TransferNft.sol",
  "abi": [
    {
      "anonymous": false,
      "inputs": [
        {
          "indexed": true,
          "internalType": "address",
          "name": "sender",
          "type": "address"
        },
        {
          "indexed": true,
          "internalType": "address",
          "name": "receiver",
          "type": "address"
        },
        {
          "indexed": false,
          "internalType": "uint256",
          "name": "nftId",
          "type": "uint256"
        },
        {
          "indexed": false,
          "internalType": "string",
          "name": "message",
          "type": "string"
        }
      ],
      "name": "nftSent",
      "type": "event"
    },
    {
      "inputs": [
        {
          "internalType": "address",
          "name": "nftContract",
          "type": "address"
        },
        {
          "internalType": "address",
          "name": "receiver",
          "type": "address"
        },
        {
          "internalType": "uint256",
          "name": "nftId",
          "type": "uint256"
        },
        {
          "internalType": "string",
          "name": "message",
          "type": "string"
        }
      ],
      "name": "sendnft",
      "outputs": [],
      "stateMutability": "nonpayable",
      "type": "function"
    }
  ],
  "bytecode": "0x6080604052348015600f57600080fd5b506105ae8061001f6000396000f3fe608060405234801561001057600080fd5b506004361061002b5760003560e01c8063928cc97c14610030575b600080fd5b61004a60048036038101906100459190610385565b61004c565b005b600073ffffffffffffffffffffffffffffffffffffffff168373ffffffffffffffffffffffffffffffffffffffff16036100bb576040517f08c379a00000000000000000000000000000000000000000000000000000000081526004016100b290610465565b60405180910390fd5b8373ffffffffffffffffffffffffffffffffffffffff166342842e0e3385856040518463ffffffff1660e01b81526004016100f8939291906104a3565b600060405180830381600087803b15801561011257600080fd5b505af1158015610126573d6000803e3d6000fd5b505050508273ffffffffffffffffffffffffffffffffffffffff163373ffffffffffffffffffffffffffffffffffffffff167f26a23a3df3e58e318610e9343aa1dc6a383a669174c4db901278203baa16b8ed8484604051610189929190610548565b60405180910390a350505050565b6000604051905090565b600080fd5b600080fd5b600073ffffffffffffffffffffffffffffffffffffffff82169050919050565b60006101d6826101ab565b9050919050565b6101e6816101cb565b81146101f157600080fd5b50565b600081359050610203816101dd565b92915050565b6000819050919050565b61021c81610209565b811461022757600080fd5b50565b60008135905061023981610213565b92915050565b600080fd5b600080fd5b6000601f19601f8301169050919050565b7f4e487b7100000000000000000000000000000000000000000000000000000000600052604160045260246000fd5b61029282610249565b810181811067ffffffffffffffff821117156102b1576102b061025a565b5b80604052505050565b60006102c4610197565b90506102d08282610289565b919050565b600067ffffffffffffffff8211156102f0576102ef61025a565b5b6102f982610249565b9050602081019050919050565b82818337600083830152505050565b6000610328610323846102d5565b6102ba565b90508281526020810184848401111561034457610343610244565b5b61034f848285610306565b509392505050565b600082601f83011261036c5761036b61023f565b5b813561037c848260208601610315565b91505092915050565b6000806000806080858703121561039f5761039e6101a1565b5b60006103ad878288016101f4565b94505060206103be878288016101f4565b93505060406103cf8782880161022a565b925050606085013567ffffffffffffffff8111156103f0576103ef6101a6565b5b6103fc87828801610357565b91505092959194509250565b600082825260208201905092915050565b7f526963657669746f7265206e6f6e2076616c69646f0000000000000000000000600082015250565b600061044f601583610408565b915061045a82610419565b602082019050919050565b6000602082019050818103600083015261047e81610442565b9050919050565b61048e816101cb565b82525050565b61049d81610209565b82525050565b60006060820190506104b86000830186610485565b6104c56020830185610485565b6104d26040830184610494565b949350505050565b600081519050919050565b60005b838110156105035780820151818401526020810190506104e8565b60008484015250505050565b600061051a826104da565b6105248185610408565b93506105348185602086016104e5565b61053d81610249565b840191505092915050565b600060408201905061055d6000830185610494565b818103602083015261056f818461050f565b9050939250505056fea2646970667358221220021929e89e27bbbc4895ae6abdfc87367277ea4ceb8f60621b827ae9d3f9e5eb64736f6c634300081b0033",
  "linkReferences": {},
  "deployedLinkReferences": {}
}