{
  "_format": "hh-sol-artifact-1",
  "contractName": "MintNFT",
  "sourceName": "contracts/MintNFT.sol",
  "abi": [
    {
      "inputs": [],
      "stateMutability": "nonpayable",
      "type": "constructor"
    },
    {
      "inputs": [
        {
          "internalType": "address",
          "name": "sender",
          "type": "address"
        },
        {
          "internalType": "uint256",
          "name": "tokenId",
          "type": "uint256"
        },
        {
          "internalType": "address",
          "name": "owner",
          "type": "address"
        }
      ],
      "name": "ERC721IncorrectOwner",
      "type": "error"
    },
    {
      "inputs": [
        {
          "internalType": "address",
          "name": "operator",
          "type": "address"
        },
        {
          "internalType": "uint256",
          "name": "tokenId",
          "type": "uint256"
        }
      ],
      "name": "ERC721InsufficientApproval",
      "type": "error"
    },
    {
      "inputs": [
        {
          "internalType": "address",
          "name": "approver",
          "type": "address"
        }
      ],
      "name": "ERC721InvalidApprover",
      "type": "error"
    },
    {
      "inputs": [
        {
          "internalType": "address",
          "name": "operator",
          "type": "address"
        }
      ],
      "name": "ERC721InvalidOperator",
      "type": "error"
    },
    {
      "inputs": [
        {
          "internalType": "address",
          "name": "owner",
          "type": "address"
        }
      ],
      "name": "ERC721InvalidOwner",
      "type": "error"
    },
    {
      "inputs": [
        {
          "internalType": "address",
          "name": "receiver",
          "type": "address"
        }
      ],
      "name": "ERC721InvalidReceiver",
      "type": "error"
    },
    {
      "inputs": [
        {
          "internalType": "address",
          "name": "sender",
          "type": "address"
        }
      ],
      "name": "ERC721InvalidSender",
      "type": "error"
    },
    {
      "inputs": [
        {
          "internalType": "uint256",
          "name": "tokenId",
          "type": "uint256"
        }
      ],
      "name": "ERC721NonexistentToken",
      "type": "error"
    },
    {
      "anonymous": false,
      "inputs": [
        {
          "indexed": true,
          "internalType": "address",
          "name": "owner",
          "type": "address"
        },
        {
          "indexed": true,
          "internalType": "address",
          "name": "approved",
          "type": "address"
        },
        {
          "indexed": true,
          "internalType": "uint256",
          "name": "tokenId",
          "type": "uint256"
        }
      ],
      "name": "Approval",
      "type": "event"
    },
    {
      "anonymous": false,
      "inputs": [
        {
          "indexed": true,
          "internalType": "address",
          "name": "owner",
          "type": "address"
        },
        {
          "indexed": true,
          "internalType": "address",
          "name": "operator",
          "type": "address"
        },
        {
          "indexed": false,
          "internalType": "bool",
          "name": "approved",
          "type": "bool"
        }
      ],
      "name": "ApprovalForAll",
      "type": "event"
    },
    {
      "anonymous": false,
      "inputs": [
        {
          "indexed": false,
          "internalType": "uint256",
          "name": "tokenId",
          "type": "uint256"
        },
        {
          "indexed": false,
          "internalType": "string",
          "name": "title",
          "type": "string"
        },
        {
          "indexed": false,
          "internalType": "string",
          "name": "description",
          "type": "string"
        },
        {
          "indexed": false,
          "internalType": "string",
          "name": "rarity",
          "type": "string"
        },
        {
          "indexed": false,
          "internalType": "uint256",
          "name": "price",
          "type": "uint256"
        },
        {
          "indexed": false,
          "internalType": "string",
          "name": "imageURL",
          "type": "string"
        },
        {
          "indexed": false,
          "internalType": "uint256",
          "name": "discount",
          "type": "uint256"
        }
      ],
      "name": "Minted",
      "type": "event"
    },
    {
      "anonymous": false,
      "inputs": [
        {
          "indexed": true,
          "internalType": "address",
          "name": "from",
          "type": "address"
        },
        {
          "indexed": true,
          "internalType": "address",
          "name": "to",
          "type": "address"
        },
        {
          "indexed": true,
          "internalType": "uint256",
          "name": "tokenId",
          "type": "uint256"
        }
      ],
      "name": "Transfer",
      "type": "event"
    },
    {
      "inputs": [
        {
          "internalType": "address",
          "name": "to",
          "type": "address"
        },
        {
          "internalType": "uint256",
          "name": "tokenId",
          "type": "uint256"
        }
      ],
      "name": "approve",
      "outputs": [],
      "stateMutability": "nonpayable",
      "type": "function"
    },
    {
      "inputs": [
        {
          "internalType": "address",
          "name": "owner",
          "type": "address"
        }
      ],
      "name": "balanceOf",
      "outputs": [
        {
          "internalType": "uint256",
          "name": "",
          "type": "uint256"
        }
      ],
      "stateMutability": "view",
      "type": "function"
    },
    {
      "inputs": [
        {
          "internalType": "uint256",
          "name": "tokenId",
          "type": "uint256"
        }
      ],
      "name": "buyNFT",
      "outputs": [],
      "stateMutability": "payable",
      "type": "function"
    },
    {
      "inputs": [
        {
          "internalType": "uint256",
          "name": "tokenId",
          "type": "uint256"
        }
      ],
      "name": "getApproved",
      "outputs": [
        {
          "internalType": "address",
          "name": "",
          "type": "address"
        }
      ],
      "stateMutability": "view",
      "type": "function"
    },
    {
      "inputs": [
        {
          "internalType": "uint256",
          "name": "tokenId",
          "type": "uint256"
        }
      ],
      "name": "getNFTDetails",
      "outputs": [
        {
          "internalType": "string",
          "name": "title",
          "type": "string"
        },
        {
          "internalType": "string",
          "name": "description",
          "type": "string"
        },
        {
          "internalType": "string",
          "name": "rarity",
          "type": "string"
        },
        {
          "internalType": "uint256",
          "name": "price",
          "type": "uint256"
        },
        {
          "internalType": "string",
          "name": "imageURL",
          "type": "string"
        },
        {
          "internalType": "uint256",
          "name": "discount",
          "type": "uint256"
        }
      ],
      "stateMutability": "view",
      "type": "function"
    },
    {
      "inputs": [
        {
          "internalType": "address",
          "name": "owner",
          "type": "address"
        },
        {
          "internalType": "address",
          "name": "operator",
          "type": "address"
        }
      ],
      "name": "isApprovedForAll",
      "outputs": [
        {
          "internalType": "bool",
          "name": "",
          "type": "bool"
        }
      ],
      "stateMutability": "view",
      "type": "function"
    },
    {
      "inputs": [
        {
          "internalType": "address",
          "name": "to",
          "type": "address"
        },
        {
          "internalType": "string",
          "name": "title",
          "type": "string"
        },
        {
          "internalType": "string",
          "name": "description",
          "type": "string"
        },
        {
          "internalType": "string",
          "name": "rarity",
          "type": "string"
        },
        {
          "internalType": "uint256",
          "name": "price",
          "type": "uint256"
        },
        {
          "internalType": "string",
          "name": "imageURL",
          "type": "string"
        },
        {
          "internalType": "uint256",
          "name": "discount",
          "type": "uint256"
        }
      ],
      "name": "mintNFT",
      "outputs": [],
      "stateMutability": "nonpayable",
      "type": "function"
    },
    {
      "inputs": [],
      "name": "name",
      "outputs": [
        {
          "internalType": "string",
          "name": "",
          "type": "string"
        }
      ],
      "stateMutability": "view",
      "type": "function"
    },
    {
      "inputs": [
        {
          "internalType": "uint256",
          "name": "tokenId",
          "type": "uint256"
        }
      ],
      "name": "ownerOf",
      "outputs": [
        {
          "internalType": "address",
          "name": "",
          "type": "address"
        }
      ],
      "stateMutability": "view",
      "type": "function"
    },
    {
      "inputs": [
        {
          "internalType": "address",
          "name": "from",
          "type": "address"
        },
        {
          "internalType": "address",
          "name": "to",
          "type": "address"
        },
        {
          "internalType": "uint256",
          "name": "tokenId",
          "type": "uint256"
        }
      ],
      "name": "safeTransferFrom",
      "outputs": [],
      "stateMutability": "nonpayable",
      "type": "function"
    },
    {
      "inputs": [
        {
          "internalType": "address",
          "name": "from",
          "type": "address"
        },
        {
          "internalType": "address",
          "name": "to",
          "type": "address"
        },
        {
          "internalType": "uint256",
          "name": "tokenId",
          "type": "uint256"
        },
        {
          "internalType": "bytes",
          "name": "data",
          "type": "bytes"
        }
      ],
      "name": "safeTransferFrom",
      "outputs": [],
      "stateMutability": "nonpayable",
      "type": "function"
    },
    {
      "inputs": [
        {
          "internalType": "address",
          "name": "operator",
          "type": "address"
        },
        {
          "internalType": "bool",
          "name": "approved",
          "type": "bool"
        }
      ],
      "name": "setApprovalForAll",
      "outputs": [],
      "stateMutability": "nonpayable",
      "type": "function"
    },
    {
      "inputs": [
        {
          "internalType": "uint256",
          "name": "tokenId",
          "type": "uint256"
        },
        {
          "internalType": "uint256",
          "name": "price",
          "type": "uint256"
        }
      ],
      "name": "setTokenPrice",
      "outputs": [],
      "stateMutability": "nonpayable",
      "type": "function"
    },
    {
      "inputs": [
        {
          "internalType": "bytes4",
          "name": "interfaceId",
          "type": "bytes4"
        }
      ],
      "name": "supportsInterface",
      "outputs": [
        {
          "internalType": "bool",
          "name": "",
          "type": "bool"
        }
      ],
      "stateMutability": "view",
      "type": "function"
    },
    {
      "inputs": [],
      "name": "symbol",
      "outputs": [
        {
          "internalType": "string",
          "name": "",
          "type": "string"
        }
      ],
      "stateMutability": "view",
      "type": "function"
    },
    {
      "inputs": [
        {
          "internalType": "uint256",
          "name": "",
          "type": "uint256"
        }
      ],
      "name": "tokenDescriptions",
      "outputs": [
        {
          "internalType": "string",
          "name": "",
          "type": "string"
        }
      ],
      "stateMutability": "view",
      "type": "function"
    },
    {
      "inputs": [
        {
          "internalType": "uint256",
          "name": "",
          "type": "uint256"
        }
      ],
      "name": "tokenDiscounts",
      "outputs": [
        {
          "internalType": "uint256",
          "name": "",
          "type": "uint256"
        }
      ],
      "stateMutability": "view",
      "type": "function"
    },
    {
      "inputs": [
        {
          "internalType": "uint256",
          "name": "",
          "type": "uint256"
        }
      ],
      "name": "tokenImageURLs",
      "outputs": [
        {
          "internalType": "string",
          "name": "",
          "type": "string"
        }
      ],
      "stateMutability": "view",
      "type": "function"
    },
    {
      "inputs": [
        {
          "internalType": "uint256",
          "name": "",
          "type": "uint256"
        }
      ],
      "name": "tokenPrices",
      "outputs": [
        {
          "internalType": "uint256",
          "name": "",
          "type": "uint256"
        }
      ],
      "stateMutability": "view",
      "type": "function"
    },
    {
      "inputs": [
        {
          "internalType": "uint256",
          "name": "",
          "type": "uint256"
        }
      ],
      "name": "tokenRarity",
      "outputs": [
        {
          "internalType": "string",
          "name": "",
          "type": "string"
        }
      ],
      "stateMutability": "view",
      "type": "function"
    },
    {
      "inputs": [
        {
          "internalType": "uint256",
          "name": "",
          "type": "uint256"
        }
      ],
      "name": "tokenTitles",
      "outputs": [
        {
          "internalType": "string",
          "name": "",
          "type": "string"
        }
      ],
      "stateMutability": "view",
      "type": "function"
    },
    {
      "inputs": [
        {
          "internalType": "uint256",
          "name": "tokenId",
          "type": "uint256"
        }
      ],
      "name": "tokenURI",
      "outputs": [
        {
          "internalType": "string",
          "name": "",
          "type": "string"
        }
      ],
      "stateMutability": "view",
      "type": "function"
    },
    {
      "inputs": [
        {
          "internalType": "address",
          "name": "from",
          "type": "address"
        },
        {
          "internalType": "address",
          "name": "to",
          "type": "address"
        },
        {
          "internalType": "uint256",
          "name": "tokenId",
          "type": "uint256"
        }
      ],
      "name": "transferFrom",
      "outputs": [],
      "stateMutability": "nonpayable",
      "type": "function"
    },
    {
      "inputs": [
        {
          "internalType": "address",
          "name": "from",
          "type": "address"
        },
        {
          "internalType": "address",
          "name": "to",
          "type": "address"
        },
        {
          "internalType": "uint256",
          "name": "tokenId",
          "type": "uint256"
        }
      ],
      "name": "transferNFT",
      "outputs": [],
      "stateMutability": "nonpayable",
      "type": "function"
    }
  ],
  "bytecode": "0x608060405234801561001057600080fd5b506040518060400160405280600781526020017f44454d45545241000000000000000000000000000000000000000000000000008152506040518060400160405280600481526020017f444d545200000000000000000000000000000000000000000000000000000000815250816000908161008c91906102f4565b50806001908161009c91906102f4565b5050506103c6565b600081519050919050565b7f4e487b7100000000000000000000000000000000000000000000000000000000600052604160045260246000fd5b7f4e487b7100000000000000000000000000000000000000000000000000000000600052602260045260246000fd5b6000600282049050600182168061012557607f821691505b602082108103610138576101376100de565b5b50919050565b60008190508160005260206000209050919050565b60006020601f8301049050919050565b600082821b905092915050565b6000600883026101a07fffffffffffffffffffffffffffffffffffffffffffffffffffffffffffffffff82610163565b6101aa8683610163565b95508019841693508086168417925050509392505050565b6000819050919050565b6000819050919050565b60006101f16101ec6101e7846101c2565b6101cc565b6101c2565b9050919050565b6000819050919050565b61020b836101d6565b61021f610217826101f8565b848454610170565b825550505050565b600090565b610234610227565b61023f818484610202565b505050565b5b818110156102635761025860008261022c565b600181019050610245565b5050565b601f8211156102a8576102798161013e565b61028284610153565b81016020851015610291578190505b6102a561029d85610153565b830182610244565b50505b505050565b600082821c905092915050565b60006102cb600019846008026102ad565b1980831691505092915050565b60006102e483836102ba565b9150826002028217905092915050565b6102fd826100a4565b67ffffffffffffffff811115610316576103156100af565b5b610320825461010d565b61032b828285610267565b600060209050601f83116001811461035e576000841561034c578287015190505b61035685826102d8565b8655506103be565b601f19841661036c8661013e565b60005b828110156103945784890151825560018201915060208501945060208101905061036f565b868310156103b157848901516103ad601f8916826102ba565b8355505b6001600288020188555050505b505050505050565b6131e8806103d56000396000f3fe60806040526004361061014b5760003560e01c806382260f35116100b6578063b88d4fde1161006f578063b88d4fde146104f6578063c87b56dd1461051f578063e5afe3e61461055c578063e985e9c514610599578063eb685c47146105d6578063f0641c18146105ff5761014b565b806382260f35146103a95780639473ca82146103eb57806395d89b4114610428578063a22cb46514610453578063afb0a3691461047c578063b1524f28146104b95761014b565b806342842e0e1161010857806342842e0e14610284578063484ae5bd146102ad57806351ed8288146102ea5780636352211e1461030657806369e9cae11461034357806370a082311461036c5761014b565b806301ffc9a71461015057806306fdde031461018d578063081812fc146101b8578063095ea7b3146101f5578063118591771461021e57806323b872dd1461025b575b600080fd5b34801561015c57600080fd5b506101776004803603810190610172919061236a565b610628565b60405161018491906123b2565b60405180910390f35b34801561019957600080fd5b506101a261070a565b6040516101af919061245d565b60405180910390f35b3480156101c457600080fd5b506101df60048036038101906101da91906124b5565b61079c565b6040516101ec9190612523565b60405180910390f35b34801561020157600080fd5b5061021c6004803603810190610217919061256a565b6107b8565b005b34801561022a57600080fd5b50610245600480360381019061024091906124b5565b6107ce565b604051610252919061245d565b60405180910390f35b34801561026757600080fd5b50610282600480360381019061027d91906125aa565b61086e565b005b34801561029057600080fd5b506102ab60048036038101906102a691906125aa565b610970565b005b3480156102b957600080fd5b506102d460048036038101906102cf91906124b5565b610990565b6040516102e1919061245d565b60405180910390f35b61030460048036038101906102ff91906124b5565b610a30565b005b34801561031257600080fd5b5061032d600480360381019061032891906124b5565b610b08565b60405161033a9190612523565b60405180910390f35b34801561034f57600080fd5b5061036a600480360381019061036591906125aa565b610b1a565b005b34801561037857600080fd5b50610393600480360381019061038e91906125fd565b610ba0565b6040516103a09190612639565b60405180910390f35b3480156103b557600080fd5b506103d060048036038101906103cb91906124b5565b610c5a565b6040516103e296959493929190612654565b60405180910390f35b3480156103f757600080fd5b50610412600480360381019061040d91906124b5565b610f1e565b60405161041f919061245d565b60405180910390f35b34801561043457600080fd5b5061043d610fbe565b60405161044a919061245d565b60405180910390f35b34801561045f57600080fd5b5061047a600480360381019061047591906126fd565b611050565b005b34801561048857600080fd5b506104a3600480360381019061049e91906124b5565b611066565b6040516104b0919061245d565b60405180910390f35b3480156104c557600080fd5b506104e060048036038101906104db91906124b5565b611106565b6040516104ed9190612639565b60405180910390f35b34801561050257600080fd5b5061051d60048036038101906105189190612872565b61111e565b005b34801561052b57600080fd5b50610546600480360381019061054191906124b5565b611143565b604051610553919061245d565b60405180910390f35b34801561056857600080fd5b50610583600480360381019061057e91906124b5565b6111ac565b6040516105909190612639565b60405180910390f35b3480156105a557600080fd5b506105c060048036038101906105bb91906128f5565b6111c4565b6040516105cd91906123b2565b60405180910390f35b3480156105e257600080fd5b506105fd60048036038101906105f89190612935565b611258565b005b34801561060b57600080fd5b5061062660048036038101906106219190612a16565b6112ea565b005b60007f80ac58cd000000000000000000000000000000000000000000000000000000007bffffffffffffffffffffffffffffffffffffffffffffffffffffffff1916827bffffffffffffffffffffffffffffffffffffffffffffffffffffffff191614806106f357507f5b5e139f000000000000000000000000000000000000000000000000000000007bffffffffffffffffffffffffffffffffffffffffffffffffffffffff1916827bffffffffffffffffffffffffffffffffffffffffffffffffffffffff1916145b80610703575061070282611414565b5b9050919050565b60606000805461071990612b57565b80601f016020809104026020016040519081016040528092919081815260200182805461074590612b57565b80156107925780601f1061076757610100808354040283529160200191610792565b820191906000526020600020905b81548152906001019060200180831161077557829003601f168201915b5050505050905090565b60006107a78261147e565b506107b182611506565b9050919050565b6107ca82826107c5611543565b61154b565b5050565b600b60205280600052604060002060009150905080546107ed90612b57565b80601f016020809104026020016040519081016040528092919081815260200182805461081990612b57565b80156108665780601f1061083b57610100808354040283529160200191610866565b820191906000526020600020905b81548152906001019060200180831161084957829003601f168201915b505050505081565b600073ffffffffffffffffffffffffffffffffffffffff168273ffffffffffffffffffffffffffffffffffffffff16036108e05760006040517f64a0ae920000000000000000000000000000000000000000000000000000000081526004016108d79190612523565b60405180910390fd5b60006108f483836108ef611543565b61155d565b90508373ffffffffffffffffffffffffffffffffffffffff168173ffffffffffffffffffffffffffffffffffffffff161461096a578382826040517f64283d7b00000000000000000000000000000000000000000000000000000000815260040161096193929190612b88565b60405180910390fd5b50505050565b61098b8383836040518060200160405280600081525061111e565b505050565b600760205280600052604060002060009150905080546109af90612b57565b80601f01602080910402602001604051908101604052809291908181526020018280546109db90612b57565b8015610a285780601f106109fd57610100808354040283529160200191610a28565b820191906000526020600020905b815481529060010190602001808311610a0b57829003601f168201915b505050505081565b6000600a600083815260200190815260200160002054905080341015610a8b576040517f08c379a0000000000000000000000000000000000000000000000000000000008152600401610a8290612c0b565b60405180910390fd5b6000610a9683610b08565b9050610aa3813385611777565b8073ffffffffffffffffffffffffffffffffffffffff166108fc349081150290604051600060405180830381858888f19350505050158015610ae9573d6000803e3d6000fd5b506000600a600085815260200190815260200160002081905550505050565b6000610b138261147e565b9050919050565b8273ffffffffffffffffffffffffffffffffffffffff16610b3a82610b08565b73ffffffffffffffffffffffffffffffffffffffff1614610b90576040517f08c379a0000000000000000000000000000000000000000000000000000000008152600401610b8790612c77565b60405180910390fd5b610b9b838383611777565b505050565b60008073ffffffffffffffffffffffffffffffffffffffff168273ffffffffffffffffffffffffffffffffffffffff1603610c135760006040517f89c62b64000000000000000000000000000000000000000000000000000000008152600401610c0a9190612523565b60405180910390fd5b600360008373ffffffffffffffffffffffffffffffffffffffff1673ffffffffffffffffffffffffffffffffffffffff168152602001908152602001600020549050919050565b60608060606000606060006007600088815260200190815260200160002060086000898152602001908152602001600020600960008a8152602001908152602001600020600a60008b815260200190815260200160002054600b60008c8152602001908152602001600020600c60008d815260200190815260200160002054858054610ce590612b57565b80601f0160208091040260200160405190810160405280929190818152602001828054610d1190612b57565b8015610d5e5780601f10610d3357610100808354040283529160200191610d5e565b820191906000526020600020905b815481529060010190602001808311610d4157829003601f168201915b50505050509550848054610d7190612b57565b80601f0160208091040260200160405190810160405280929190818152602001828054610d9d90612b57565b8015610dea5780601f10610dbf57610100808354040283529160200191610dea565b820191906000526020600020905b815481529060010190602001808311610dcd57829003601f168201915b50505050509450838054610dfd90612b57565b80601f0160208091040260200160405190810160405280929190818152602001828054610e2990612b57565b8015610e765780601f10610e4b57610100808354040283529160200191610e76565b820191906000526020600020905b815481529060010190602001808311610e5957829003601f168201915b50505050509350818054610e8990612b57565b80601f0160208091040260200160405190810160405280929190818152602001828054610eb590612b57565b8015610f025780601f10610ed757610100808354040283529160200191610f02565b820191906000526020600020905b815481529060010190602001808311610ee557829003601f168201915b5050505050915095509550955095509550955091939550919395565b60086020528060005260406000206000915090508054610f3d90612b57565b80601f0160208091040260200160405190810160405280929190818152602001828054610f6990612b57565b8015610fb65780601f10610f8b57610100808354040283529160200191610fb6565b820191906000526020600020905b815481529060010190602001808311610f9957829003601f168201915b505050505081565b606060018054610fcd90612b57565b80601f0160208091040260200160405190810160405280929190818152602001828054610ff990612b57565b80156110465780601f1061101b57610100808354040283529160200191611046565b820191906000526020600020905b81548152906001019060200180831161102957829003601f168201915b5050505050905090565b61106261105b611543565b83836118e4565b5050565b6009602052806000526040600020600091509050805461108590612b57565b80601f01602080910402602001604051908101604052809291908181526020018280546110b190612b57565b80156110fe5780601f106110d3576101008083540402835291602001916110fe565b820191906000526020600020905b8154815290600101906020018083116110e157829003601f168201915b505050505081565b600c6020528060005260406000206000915090505481565b61112984848461086e565b61113d611134611543565b85858585611a53565b50505050565b606061114e8261147e565b506000611159611c04565b9050600081511161117957604051806020016040528060008152506111a4565b8061118384611c1b565b604051602001611194929190612cd3565b6040516020818303038152906040525b915050919050565b600a6020528060005260406000206000915090505481565b6000600560008473ffffffffffffffffffffffffffffffffffffffff1673ffffffffffffffffffffffffffffffffffffffff16815260200190815260200160002060008373ffffffffffffffffffffffffffffffffffffffff1673ffffffffffffffffffffffffffffffffffffffff16815260200190815260200160002060009054906101000a900460ff16905092915050565b3373ffffffffffffffffffffffffffffffffffffffff1661127883610b08565b73ffffffffffffffffffffffffffffffffffffffff16146112ce576040517f08c379a00000000000000000000000000000000000000000000000000000000081526004016112c590612c77565b60405180910390fd5b80600a6000848152602001908152602001600020819055505050565b600060065490506112fb8882611ce9565b8660076000838152602001908152602001600020908161131b9190612ea3565b508560086000838152602001908152602001600020908161133c9190612ea3565b508460096000838152602001908152602001600020908161135d9190612ea3565b5083600a60008381526020019081526020016000208190555082600b600083815260200190815260200160002090816113969190612ea3565b5081600c600083815260200190815260200160002081905550600660008154809291906113c290612fa4565b91905055507f5fec77c62d781ed8b9d4d04d4c4909d633b3a767bd8872c9754168b3391ba9a4818888888888886040516114029796959493929190612fec565b60405180910390a15050505050505050565b60007f01ffc9a7000000000000000000000000000000000000000000000000000000007bffffffffffffffffffffffffffffffffffffffffffffffffffffffff1916827bffffffffffffffffffffffffffffffffffffffffffffffffffffffff1916149050919050565b60008061148a83611d07565b9050600073ffffffffffffffffffffffffffffffffffffffff168173ffffffffffffffffffffffffffffffffffffffff16036114fd57826040517f7e2732890000000000000000000000000000000000000000000000000000000081526004016114f49190612639565b60405180910390fd5b80915050919050565b60006004600083815260200190815260200160002060009054906101000a900473ffffffffffffffffffffffffffffffffffffffff169050919050565b600033905090565b6115588383836001611d44565b505050565b60008061156984611d07565b9050600073ffffffffffffffffffffffffffffffffffffffff168373ffffffffffffffffffffffffffffffffffffffff16146115ab576115aa818486611f09565b5b600073ffffffffffffffffffffffffffffffffffffffff168173ffffffffffffffffffffffffffffffffffffffff161461163c576115ed600085600080611d44565b6001600360008373ffffffffffffffffffffffffffffffffffffffff1673ffffffffffffffffffffffffffffffffffffffff168152602001908152602001600020600082825403925050819055505b600073ffffffffffffffffffffffffffffffffffffffff168573ffffffffffffffffffffffffffffffffffffffff16146116bf576001600360008773ffffffffffffffffffffffffffffffffffffffff1673ffffffffffffffffffffffffffffffffffffffff168152602001908152602001600020600082825401925050819055505b846002600086815260200190815260200160002060006101000a81548173ffffffffffffffffffffffffffffffffffffffff021916908373ffffffffffffffffffffffffffffffffffffffff160217905550838573ffffffffffffffffffffffffffffffffffffffff168273ffffffffffffffffffffffffffffffffffffffff167fddf252ad1be2c89b69c2b068fc378daa952ba7f163c4a11628f55a4df523b3ef60405160405180910390a4809150509392505050565b600073ffffffffffffffffffffffffffffffffffffffff168273ffffffffffffffffffffffffffffffffffffffff16036117e95760006040517f64a0ae920000000000000000000000000000000000000000000000000000000081526004016117e09190612523565b60405180910390fd5b60006117f78383600061155d565b9050600073ffffffffffffffffffffffffffffffffffffffff168173ffffffffffffffffffffffffffffffffffffffff160361186a57816040517f7e2732890000000000000000000000000000000000000000000000000000000081526004016118619190612639565b60405180910390fd5b8373ffffffffffffffffffffffffffffffffffffffff168173ffffffffffffffffffffffffffffffffffffffff16146118de578382826040517f64283d7b0000000000000000000000000000000000000000000000000000000081526004016118d593929190612b88565b60405180910390fd5b50505050565b600073ffffffffffffffffffffffffffffffffffffffff168273ffffffffffffffffffffffffffffffffffffffff160361195557816040517f5b08ba1800000000000000000000000000000000000000000000000000000000815260040161194c9190612523565b60405180910390fd5b80600560008573ffffffffffffffffffffffffffffffffffffffff1673ffffffffffffffffffffffffffffffffffffffff16815260200190815260200160002060008473ffffffffffffffffffffffffffffffffffffffff1673ffffffffffffffffffffffffffffffffffffffff16815260200190815260200160002060006101000a81548160ff0219169083151502179055508173ffffffffffffffffffffffffffffffffffffffff168373ffffffffffffffffffffffffffffffffffffffff167f17307eab39ab6107e8899845ad3d59bd9653f200f220920489ca2b5937696c3183604051611a4691906123b2565b60405180910390a3505050565b60008373ffffffffffffffffffffffffffffffffffffffff163b1115611bfd578273ffffffffffffffffffffffffffffffffffffffff1663150b7a02868685856040518563ffffffff1660e01b8152600401611ab294939291906130cc565b6020604051808303816000875af1925050508015611aee57506040513d601f19601f82011682018060405250810190611aeb919061312d565b60015b611b72573d8060008114611b1e576040519150601f19603f3d011682016040523d82523d6000602084013e611b23565b606091505b506000815103611b6a57836040517f64a0ae92000000000000000000000000000000000000000000000000000000008152600401611b619190612523565b60405180910390fd5b805181602001fd5b63150b7a0260e01b7bffffffffffffffffffffffffffffffffffffffffffffffffffffffff1916817bffffffffffffffffffffffffffffffffffffffffffffffffffffffff191614611bfb57836040517f64a0ae92000000000000000000000000000000000000000000000000000000008152600401611bf29190612523565b60405180910390fd5b505b5050505050565b606060405180602001604052806000815250905090565b606060006001611c2a84611fcd565b01905060008167ffffffffffffffff811115611c4957611c48612747565b5b6040519080825280601f01601f191660200182016040528015611c7b5781602001600182028036833780820191505090505b509050600082602001820190505b600115611cde578080600190039150507f3031323334353637383961626364656600000000000000000000000000000000600a86061a8153600a8581611cd257611cd161315a565b5b04945060008503611c89575b819350505050919050565b611d03828260405180602001604052806000815250612120565b5050565b60006002600083815260200190815260200160002060009054906101000a900473ffffffffffffffffffffffffffffffffffffffff169050919050565b8080611d7d5750600073ffffffffffffffffffffffffffffffffffffffff168273ffffffffffffffffffffffffffffffffffffffff1614155b15611eb1576000611d8d8461147e565b9050600073ffffffffffffffffffffffffffffffffffffffff168373ffffffffffffffffffffffffffffffffffffffff1614158015611df857508273ffffffffffffffffffffffffffffffffffffffff168173ffffffffffffffffffffffffffffffffffffffff1614155b8015611e0b5750611e0981846111c4565b155b15611e4d57826040517fa9fbf51f000000000000000000000000000000000000000000000000000000008152600401611e449190612523565b60405180910390fd5b8115611eaf57838573ffffffffffffffffffffffffffffffffffffffff168273ffffffffffffffffffffffffffffffffffffffff167f8c5be1e5ebec7d5bd14f71427d1e84f3dd0314c0f7b2291e5b200ac8c7c3b92560405160405180910390a45b505b836004600085815260200190815260200160002060006101000a81548173ffffffffffffffffffffffffffffffffffffffff021916908373ffffffffffffffffffffffffffffffffffffffff16021790555050505050565b611f14838383612144565b611fc857600073ffffffffffffffffffffffffffffffffffffffff168373ffffffffffffffffffffffffffffffffffffffff1603611f8957806040517f7e273289000000000000000000000000000000000000000000000000000000008152600401611f809190612639565b60405180910390fd5b81816040517f177e802f000000000000000000000000000000000000000000000000000000008152600401611fbf929190613189565b60405180910390fd5b505050565b600080600090507a184f03e93ff9f4daa797ed6e38ed64bf6a1f010000000000000000831061202b577a184f03e93ff9f4daa797ed6e38ed64bf6a1f01000000000000000083816120215761202061315a565b5b0492506040810190505b6d04ee2d6d415b85acef81000000008310612068576d04ee2d6d415b85acef8100000000838161205e5761205d61315a565b5b0492506020810190505b662386f26fc10000831061209757662386f26fc10000838161208d5761208c61315a565b5b0492506010810190505b6305f5e10083106120c0576305f5e10083816120b6576120b561315a565b5b0492506008810190505b61271083106120e55761271083816120db576120da61315a565b5b0492506004810190505b6064831061210857606483816120fe576120fd61315a565b5b0492506002810190505b600a8310612117576001810190505b80915050919050565b61212a8383612205565b61213f612135611543565b6000858585611a53565b505050565b60008073ffffffffffffffffffffffffffffffffffffffff168373ffffffffffffffffffffffffffffffffffffffff16141580156121fc57508273ffffffffffffffffffffffffffffffffffffffff168473ffffffffffffffffffffffffffffffffffffffff1614806121bd57506121bc84846111c4565b5b806121fb57508273ffffffffffffffffffffffffffffffffffffffff166121e383611506565b73ffffffffffffffffffffffffffffffffffffffff16145b5b90509392505050565b600073ffffffffffffffffffffffffffffffffffffffff168273ffffffffffffffffffffffffffffffffffffffff16036122775760006040517f64a0ae9200000000000000000000000000000000000000000000000000000000815260040161226e9190612523565b60405180910390fd5b60006122858383600061155d565b9050600073ffffffffffffffffffffffffffffffffffffffff168173ffffffffffffffffffffffffffffffffffffffff16146122f95760006040517f73c6ac6e0000000000000000000000000000000000000000000000000000000081526004016122f09190612523565b60405180910390fd5b505050565b6000604051905090565b600080fd5b600080fd5b60007fffffffff0000000000000000000000000000000000000000000000000000000082169050919050565b61234781612312565b811461235257600080fd5b50565b6000813590506123648161233e565b92915050565b6000602082840312156123805761237f612308565b5b600061238e84828501612355565b91505092915050565b60008115159050919050565b6123ac81612397565b82525050565b60006020820190506123c760008301846123a3565b92915050565b600081519050919050565b600082825260208201905092915050565b60005b838110156124075780820151818401526020810190506123ec565b60008484015250505050565b6000601f19601f8301169050919050565b600061242f826123cd565b61243981856123d8565b93506124498185602086016123e9565b61245281612413565b840191505092915050565b600060208201905081810360008301526124778184612424565b905092915050565b6000819050919050565b6124928161247f565b811461249d57600080fd5b50565b6000813590506124af81612489565b92915050565b6000602082840312156124cb576124ca612308565b5b60006124d9848285016124a0565b91505092915050565b600073ffffffffffffffffffffffffffffffffffffffff82169050919050565b600061250d826124e2565b9050919050565b61251d81612502565b82525050565b60006020820190506125386000830184612514565b92915050565b61254781612502565b811461255257600080fd5b50565b6000813590506125648161253e565b92915050565b6000806040838503121561258157612580612308565b5b600061258f85828601612555565b92505060206125a0858286016124a0565b9150509250929050565b6000806000606084860312156125c3576125c2612308565b5b60006125d186828701612555565b93505060206125e286828701612555565b92505060406125f3868287016124a0565b9150509250925092565b60006020828403121561261357612612612308565b5b600061262184828501612555565b91505092915050565b6126338161247f565b82525050565b600060208201905061264e600083018461262a565b92915050565b600060c082019050818103600083015261266e8189612424565b905081810360208301526126828188612424565b905081810360408301526126968187612424565b90506126a5606083018661262a565b81810360808301526126b78185612424565b90506126c660a083018461262a565b979650505050505050565b6126da81612397565b81146126e557600080fd5b50565b6000813590506126f7816126d1565b92915050565b6000806040838503121561271457612713612308565b5b600061272285828601612555565b9250506020612733858286016126e8565b9150509250929050565b600080fd5b600080fd5b7f4e487b7100000000000000000000000000000000000000000000000000000000600052604160045260246000fd5b61277f82612413565b810181811067ffffffffffffffff8211171561279e5761279d612747565b5b80604052505050565b60006127b16122fe565b90506127bd8282612776565b919050565b600067ffffffffffffffff8211156127dd576127dc612747565b5b6127e682612413565b9050602081019050919050565b82818337600083830152505050565b6000612815612810846127c2565b6127a7565b90508281526020810184848401111561283157612830612742565b5b61283c8482856127f3565b509392505050565b600082601f8301126128595761285861273d565b5b8135612869848260208601612802565b91505092915050565b6000806000806080858703121561288c5761288b612308565b5b600061289a87828801612555565b94505060206128ab87828801612555565b93505060406128bc878288016124a0565b925050606085013567ffffffffffffffff8111156128dd576128dc61230d565b5b6128e987828801612844565b91505092959194509250565b6000806040838503121561290c5761290b612308565b5b600061291a85828601612555565b925050602061292b85828601612555565b9150509250929050565b6000806040838503121561294c5761294b612308565b5b600061295a858286016124a0565b925050602061296b858286016124a0565b9150509250929050565b600067ffffffffffffffff8211156129905761298f612747565b5b61299982612413565b9050602081019050919050565b60006129b96129b484612975565b6127a7565b9050828152602081018484840111156129d5576129d4612742565b5b6129e08482856127f3565b509392505050565b600082601f8301126129fd576129fc61273d565b5b8135612a0d8482602086016129a6565b91505092915050565b600080600080600080600060e0888a031215612a3557612a34612308565b5b6000612a438a828b01612555565b975050602088013567ffffffffffffffff811115612a6457612a6361230d565b5b612a708a828b016129e8565b965050604088013567ffffffffffffffff811115612a9157612a9061230d565b5b612a9d8a828b016129e8565b955050606088013567ffffffffffffffff811115612abe57612abd61230d565b5b612aca8a828b016129e8565b9450506080612adb8a828b016124a0565b93505060a088013567ffffffffffffffff811115612afc57612afb61230d565b5b612b088a828b016129e8565b92505060c0612b198a828b016124a0565b91505092959891949750929550565b7f4e487b7100000000000000000000000000000000000000000000000000000000600052602260045260246000fd5b60006002820490506001821680612b6f57607f821691505b602082108103612b8257612b81612b28565b5b50919050565b6000606082019050612b9d6000830186612514565b612baa602083018561262a565b612bb76040830184612514565b949350505050565b7f496e73756666696369656e742066756e64730000000000000000000000000000600082015250565b6000612bf56012836123d8565b9150612c0082612bbf565b602082019050919050565b60006020820190508181036000830152612c2481612be8565b9050919050565b7f596f7520617265206e6f7420746865206f776e65720000000000000000000000600082015250565b6000612c616015836123d8565b9150612c6c82612c2b565b602082019050919050565b60006020820190508181036000830152612c9081612c54565b9050919050565b600081905092915050565b6000612cad826123cd565b612cb78185612c97565b9350612cc78185602086016123e9565b80840191505092915050565b6000612cdf8285612ca2565b9150612ceb8284612ca2565b91508190509392505050565b60008190508160005260206000209050919050565b60006020601f8301049050919050565b600082821b905092915050565b600060088302612d597fffffffffffffffffffffffffffffffffffffffffffffffffffffffffffffffff82612d1c565b612d638683612d1c565b95508019841693508086168417925050509392505050565b6000819050919050565b6000612da0612d9b612d968461247f565b612d7b565b61247f565b9050919050565b6000819050919050565b612dba83612d85565b612dce612dc682612da7565b848454612d29565b825550505050565b600090565b612de3612dd6565b612dee818484612db1565b505050565b5b81811015612e1257612e07600082612ddb565b600181019050612df4565b5050565b601f821115612e5757612e2881612cf7565b612e3184612d0c565b81016020851015612e40578190505b612e54612e4c85612d0c565b830182612df3565b50505b505050565b600082821c905092915050565b6000612e7a60001984600802612e5c565b1980831691505092915050565b6000612e938383612e69565b9150826002028217905092915050565b612eac826123cd565b67ffffffffffffffff811115612ec557612ec4612747565b5b612ecf8254612b57565b612eda828285612e16565b600060209050601f831160018114612f0d5760008415612efb578287015190505b612f058582612e87565b865550612f6d565b601f198416612f1b86612cf7565b60005b82811015612f4357848901518255600182019150602085019450602081019050612f1e565b86831015612f605784890151612f5c601f891682612e69565b8355505b6001600288020188555050505b505050505050565b7f4e487b7100000000000000000000000000000000000000000000000000000000600052601160045260246000fd5b6000612faf8261247f565b91507fffffffffffffffffffffffffffffffffffffffffffffffffffffffffffffffff8203612fe157612fe0612f75565b5b600182019050919050565b600060e082019050613001600083018a61262a565b81810360208301526130138189612424565b905081810360408301526130278188612424565b9050818103606083015261303b8187612424565b905061304a608083018661262a565b81810360a083015261305c8185612424565b905061306b60c083018461262a565b98975050505050505050565b600081519050919050565b600082825260208201905092915050565b600061309e82613077565b6130a88185613082565b93506130b88185602086016123e9565b6130c181612413565b840191505092915050565b60006080820190506130e16000830187612514565b6130ee6020830186612514565b6130fb604083018561262a565b818103606083015261310d8184613093565b905095945050505050565b6000815190506131278161233e565b92915050565b60006020828403121561314357613142612308565b5b600061315184828501613118565b91505092915050565b7f4e487b7100000000000000000000000000000000000000000000000000000000600052601260045260246000fd5b600060408201905061319e6000830185612514565b6131ab602083018461262a565b939250505056fea2646970667358221220f310cd4363919be3a9c36428fa52a17b3735db2df760bc0edcc0cdedda01cfd164736f6c634300081b0033",
  "linkReferences": {},
  "deployedLinkReferences": {}
}