{
  "_format": "hh-sol-artifact-1",
  "contractName": "NFTAuction",
  "sourceName": "contracts/NFTAuction.sol",
  "abi": [
    {
      "inputs": [],
      "stateMutability": "nonpayable",
      "type": "constructor"
    },
    {
      "anonymous": false,
      "inputs": [
        {
          "indexed": false,
          "internalType": "uint256",
          "name": "nftId",
          "type": "uint256"
        },
        {
          "indexed": false,
          "internalType": "address",
          "name": "winner",
          "type": "address"
        },
        {
          "indexed": false,
          "internalType": "uint256",
          "name": "amount",
          "type": "uint256"
        }
      ],
      "name": "AuctionEnded",
      "type": "event"
    },
    {
      "anonymous": false,
      "inputs": [
        {
          "indexed": false,
          "internalType": "uint256",
          "name": "nftId",
          "type": "uint256"
        }
      ],
      "name": "AuctionStarted",
      "type": "event"
    },
    {
      "anonymous": false,
      "inputs": [
        {
          "indexed": false,
          "internalType": "uint256",
          "name": "nftId",
          "type": "uint256"
        },
        {
          "indexed": false,
          "internalType": "address",
          "name": "bidder",
          "type": "address"
        },
        {
          "indexed": false,
          "internalType": "uint256",
          "name": "amount",
          "type": "uint256"
        }
      ],
      "name": "BidPlaced",
      "type": "event"
    },
    {
      "inputs": [
        {
          "internalType": "uint256",
          "name": "",
          "type": "uint256"
        }
      ],
      "name": "auctions",
      "outputs": [
        {
          "internalType": "uint256",
          "name": "highestBid",
          "type": "uint256"
        },
        {
          "internalType": "address",
          "name": "highestBidder",
          "type": "address"
        },
        {
          "internalType": "bool",
          "name": "isActive",
          "type": "bool"
        }
      ],
      "stateMutability": "view",
      "type": "function"
    },
    {
      "inputs": [],
      "name": "beneficiary",
      "outputs": [
        {
          "internalType": "address",
          "name": "",
          "type": "address"
        }
      ],
      "stateMutability": "view",
      "type": "function"
    },
    {
      "inputs": [
        {
          "internalType": "uint256",
          "name": "nftId",
          "type": "uint256"
        }
      ],
      "name": "endAuction",
      "outputs": [],
      "stateMutability": "nonpayable",
      "type": "function"
    },
    {
      "inputs": [
        {
          "internalType": "uint256",
          "name": "nftId",
          "type": "uint256"
        }
      ],
      "name": "placeBid",
      "outputs": [],
      "stateMutability": "payable",
      "type": "function"
    },
    {
      "inputs": [
        {
          "internalType": "uint256",
          "name": "nftId",
          "type": "uint256"
        }
      ],
      "name": "startAuction",
      "outputs": [],
      "stateMutability": "nonpayable",
      "type": "function"
    }
  ],
  "bytecode": "0x608060405273f1cdf08ed6bfdf845aad575b08be1c56e5128a256000806101000a81548173ffffffffffffffffffffffffffffffffffffffff021916908373ffffffffffffffffffffffffffffffffffffffff160217905550348015606357600080fd5b506109ba806100736000396000f3fe60806040526004361061004a5760003560e01c8063065de74c1461004f57806338af3eed14610078578063571a26a0146100a35780639979ef45146100e2578063b9a2de3a146100fe575b600080fd5b34801561005b57600080fd5b50610076600480360381019061007191906106f3565b610127565b005b34801561008457600080fd5b5061008d610282565b60405161009a9190610761565b60405180910390f35b3480156100af57600080fd5b506100ca60048036038101906100c591906106f3565b6102a6565b6040516100d9939291906107a6565b60405180910390f35b6100fc60048036038101906100f791906106f3565b6102fd565b005b34801561010a57600080fd5b50610125600480360381019061012091906106f3565b6104ad565b005b6001600082815260200190815260200160002060010160149054906101000a900460ff161561018b576040517f08c379a00000000000000000000000000000000000000000000000000000000081526004016101829061083a565b60405180910390fd5b604051806060016040528060008152602001600073ffffffffffffffffffffffffffffffffffffffff16815260200160011515815250600160008381526020019081526020016000206000820151816000015560208201518160010160006101000a81548173ffffffffffffffffffffffffffffffffffffffff021916908373ffffffffffffffffffffffffffffffffffffffff16021790555060408201518160010160146101000a81548160ff0219169083151502179055509050507f1bb96dff6ab5005aff98cdc0cf176bb7d8e0423cb48e02217d35b042cec81e9f81604051610277919061085a565b60405180910390a150565b60008054906101000a900473ffffffffffffffffffffffffffffffffffffffff1681565b60016020528060005260406000206000915090508060000154908060010160009054906101000a900473ffffffffffffffffffffffffffffffffffffffff16908060010160149054906101000a900460ff16905083565b60006001600083815260200190815260200160002090508060000154341161035a576040517f08c379a0000000000000000000000000000000000000000000000000000000008152600401610351906108c1565b60405180910390fd5b600073ffffffffffffffffffffffffffffffffffffffff168160010160009054906101000a900473ffffffffffffffffffffffffffffffffffffffff1673ffffffffffffffffffffffffffffffffffffffff1614610422578060010160009054906101000a900473ffffffffffffffffffffffffffffffffffffffff1673ffffffffffffffffffffffffffffffffffffffff166108fc82600001549081150290604051600060405180830381858888f19350505050158015610420573d6000803e3d6000fd5b505b348160000181905550338160010160006101000a81548173ffffffffffffffffffffffffffffffffffffffff021916908373ffffffffffffffffffffffffffffffffffffffff1602179055507f0e54eff26401bf69b81b26f60bd85ef47f5d85275c1d268d84f68d6897431c478233346040516104a1939291906108e1565b60405180910390a15050565b60006001600083815260200190815260200160002090508060010160149054906101000a900460ff16610515576040517f08c379a000000000000000000000000000000000000000000000000000000000815260040161050c90610964565b60405180910390fd5b60008160010160146101000a81548160ff021916908315150217905550600073ffffffffffffffffffffffffffffffffffffffff168160010160009054906101000a900473ffffffffffffffffffffffffffffffffffffffff1673ffffffffffffffffffffffffffffffffffffffff161461065b5760008160000154905060008054906101000a900473ffffffffffffffffffffffffffffffffffffffff1673ffffffffffffffffffffffffffffffffffffffff166108fc829081150290604051600060405180830381858888f193505050501580156105f9573d6000803e3d6000fd5b507fd2aa34a4fdbbc6dff6a3e56f46e0f3ae2a31d7785ff3487aa5c95c642acea501838360010160009054906101000a900473ffffffffffffffffffffffffffffffffffffffff1683604051610651939291906108e1565b60405180910390a1505b600160008381526020019081526020016000206000808201600090556001820160006101000a81549073ffffffffffffffffffffffffffffffffffffffff02191690556001820160146101000a81549060ff021916905550505050565b600080fd5b6000819050919050565b6106d0816106bd565b81146106db57600080fd5b50565b6000813590506106ed816106c7565b92915050565b600060208284031215610709576107086106b8565b5b6000610717848285016106de565b91505092915050565b600073ffffffffffffffffffffffffffffffffffffffff82169050919050565b600061074b82610720565b9050919050565b61075b81610740565b82525050565b60006020820190506107766000830184610752565b92915050565b610785816106bd565b82525050565b60008115159050919050565b6107a08161078b565b82525050565b60006060820190506107bb600083018661077c565b6107c86020830185610752565b6107d56040830184610797565b949350505050565b600082825260208201905092915050565b7f41756374696f6e20616c72656164792061637469766500000000000000000000600082015250565b60006108246016836107dd565b915061082f826107ee565b602082019050919050565b6000602082019050818103600083015261085381610817565b9050919050565b600060208201905061086f600083018461077c565b92915050565b7f42696420697320746f6f206c6f77000000000000000000000000000000000000600082015250565b60006108ab600e836107dd565b91506108b682610875565b602082019050919050565b600060208201905081810360008301526108da8161089e565b9050919050565b60006060820190506108f6600083018661077c565b6109036020830185610752565b610910604083018461077c565b949350505050565b7f41756374696f6e206e6f74206163746976650000000000000000000000000000600082015250565b600061094e6012836107dd565b915061095982610918565b602082019050919050565b6000602082019050818103600083015261097d81610941565b905091905056fea2646970667358221220ab906fea940caa272838a0691e567f33b8ad5d1d62ff8fa174591475a730319564736f6c634300081b0033",
  "linkReferences": {},
  "deployedLinkReferences": {}
}