{
  "_format": "hh-sol-artifact-1",
  "contractName": "HandlePayment",
  "sourceName": "contracts/HandlePayment.sol",
  "abi": [
    {
      "inputs": [],
      "stateMutability": "nonpayable",
      "type": "constructor"
    },
    {
      "anonymous": false,
      "inputs": [
        {
          "indexed": true,
          "internalType": "uint256",
          "name": "nftId",
          "type": "uint256"
        },
        {
          "indexed": false,
          "internalType": "uint256",
          "name": "price",
          "type": "uint256"
        },
        {
          "indexed": true,
          "internalType": "address",
          "name": "buyer",
          "type": "address"
        }
      ],
      "name": "NFTPurchased",
      "type": "event"
    },
    {
      "inputs": [],
      "name": "getPurchasedNFTs",
      "outputs": [
        {
          "internalType": "uint256[]",
          "name": "",
          "type": "uint256[]"
        }
      ],
      "stateMutability": "view",
      "type": "function"
    },
    {
      "inputs": [],
      "name": "owner",
      "outputs": [
        {
          "internalType": "address",
          "name": "",
          "type": "address"
        }
      ],
      "stateMutability": "view",
      "type": "function"
    },
    {
      "inputs": [
        {
          "internalType": "uint256",
          "name": "",
          "type": "uint256"
        }
      ],
      "name": "purchasedNFTs",
      "outputs": [
        {
          "internalType": "uint256",
          "name": "",
          "type": "uint256"
        }
      ],
      "stateMutability": "view",
      "type": "function"
    },
    {
      "inputs": [
        {
          "internalType": "uint256",
          "name": "nftId",
          "type": "uint256"
        }
      ],
      "name": "transferMoney",
      "outputs": [],
      "stateMutability": "payable",
      "type": "function"
    }
  ],
  "bytecode": "0x6080604052348015600f57600080fd5b50336000806101000a81548173ffffffffffffffffffffffffffffffffffffffff021916908373ffffffffffffffffffffffffffffffffffffffff1602179055506106788061005f6000396000f3fe60806040526004361061003f5760003560e01c80630de160c21461004457806379a513031461006f5780638a472caf146100ac5780638da5cb5b146100c8575b600080fd5b34801561005057600080fd5b506100596100f3565b60405161006691906103e7565b60405180910390f35b34801561007b57600080fd5b506100966004803603810190610091919061043a565b61014b565b6040516100a39190610476565b60405180910390f35b6100c660048036038101906100c1919061043a565b61016f565b005b3480156100d457600080fd5b506100dd6102fb565b6040516100ea91906104d2565b60405180910390f35b6060600180548060200260200160405190810160405280929190818152602001828054801561014157602002820191906000526020600020905b81548152602001906001019080831161012d575b5050505050905090565b6001818154811061015b57600080fd5b906000526020600020016000915090505481565b600034116101b2576040517f08c379a00000000000000000000000000000000000000000000000000000000081526004016101a990610570565b60405180910390fd5b60008060009054906101000a900473ffffffffffffffffffffffffffffffffffffffff1673ffffffffffffffffffffffffffffffffffffffff16346040516101f9906105c1565b60006040518083038185875af1925050503d8060008114610236576040519150601f19603f3d011682016040523d82523d6000602084013e61023b565b606091505b505090508061027f576040517f08c379a000000000000000000000000000000000000000000000000000000000815260040161027690610622565b60405180910390fd5b60018290806001815401808255809150506001900390600052602060002001600090919091909150553373ffffffffffffffffffffffffffffffffffffffff16827f9a12ad96f5fd2f8de7ff10aa35e001e28e8230e666679b6ce648728849ede637346040516102ef9190610476565b60405180910390a35050565b60008054906101000a900473ffffffffffffffffffffffffffffffffffffffff1681565b600081519050919050565b600082825260208201905092915050565b6000819050602082019050919050565b6000819050919050565b61035e8161034b565b82525050565b60006103708383610355565b60208301905092915050565b6000602082019050919050565b60006103948261031f565b61039e818561032a565b93506103a98361033b565b8060005b838110156103da5781516103c18882610364565b97506103cc8361037c565b9250506001810190506103ad565b5085935050505092915050565b600060208201905081810360008301526104018184610389565b905092915050565b600080fd5b6104178161034b565b811461042257600080fd5b50565b6000813590506104348161040e565b92915050565b6000602082840312156104505761044f610409565b5b600061045e84828501610425565b91505092915050565b6104708161034b565b82525050565b600060208201905061048b6000830184610467565b92915050565b600073ffffffffffffffffffffffffffffffffffffffff82169050919050565b60006104bc82610491565b9050919050565b6104cc816104b1565b82525050565b60006020820190506104e760008301846104c3565b92915050565b600082825260208201905092915050565b7f4c61207472616e73617a696f6e65206465766520617665726520756e2076616c60008201527f6f726520706f73697469766f0000000000000000000000000000000000000000602082015250565b600061055a602c836104ed565b9150610565826104fe565b604082019050919050565b600060208201905081810360008301526105898161054d565b9050919050565b600081905092915050565b50565b60006105ab600083610590565b91506105b68261059b565b600082019050919050565b60006105cc8261059e565b9150819050919050565b7f54726173666572696d656e746f2066616c6c69746f0000000000000000000000600082015250565b600061060c6015836104ed565b9150610617826105d6565b602082019050919050565b6000602082019050818103600083015261063b816105ff565b905091905056fea264697066735822122019bfb6f162bf2798f6f23a14ee05806e45fdf00d49032229f52cfcd203b6f5a564736f6c634300081b0033",
  "linkReferences": {},
  "deployedLinkReferences": {}
}