{
  "_format": "hh-sol-artifact-1",
  "contractName": "TransferNft",
  "sourceName": "contracts/TransferNft.sol",
  "abi": [
    {
      "anonymous": false,
      "inputs": [
        {
          "indexed": true,
          "internalType": "address",
          "name": "sender",
          "type": "address"
        },
        {
          "indexed": true,
          "internalType": "address",
          "name": "receiver",
          "type": "address"
        },
        {
          "indexed": false,
          "internalType": "string",
          "name": "message",
          "type": "string"
        }
      ],
      "name": "nftSent",
      "type": "event"
    },
    {
      "inputs": [
        {
          "internalType": "address",
          "name": "receiver",
          "type": "address"
        },
        {
          "internalType": "string",
          "name": "message",
          "type": "string"
        }
      ],
      "name": "sendnft",
      "outputs": [],
      "stateMutability": "nonpayable",
      "type": "function"
    }
  ],
  "bytecode": "0x6080604052348015600f57600080fd5b5061047b8061001f6000396000f3fe608060405234801561001057600080fd5b506004361061002b5760003560e01c80630140d76f14610030575b600080fd5b61004a600480360381019061004591906102dc565b61004c565b005b600073ffffffffffffffffffffffffffffffffffffffff168273ffffffffffffffffffffffffffffffffffffffff16036100bb576040517f08c379a00000000000000000000000000000000000000000000000000000000081526004016100b290610395565b60405180910390fd5b8173ffffffffffffffffffffffffffffffffffffffff163373ffffffffffffffffffffffffffffffffffffffff167f0e410301c698c5b9f645c13d4693eeed550a3f42428bfe56c7c8d21b4a1ac77a836040516101189190610423565b60405180910390a35050565b6000604051905090565b600080fd5b600080fd5b600073ffffffffffffffffffffffffffffffffffffffff82169050919050565b600061016382610138565b9050919050565b61017381610158565b811461017e57600080fd5b50565b6000813590506101908161016a565b92915050565b600080fd5b600080fd5b6000601f19601f8301169050919050565b7f4e487b7100000000000000000000000000000000000000000000000000000000600052604160045260246000fd5b6101e9826101a0565b810181811067ffffffffffffffff82111715610208576102076101b1565b5b80604052505050565b600061021b610124565b905061022782826101e0565b919050565b600067ffffffffffffffff821115610247576102466101b1565b5b610250826101a0565b9050602081019050919050565b82818337600083830152505050565b600061027f61027a8461022c565b610211565b90508281526020810184848401111561029b5761029a61019b565b5b6102a684828561025d565b509392505050565b600082601f8301126102c3576102c2610196565b5b81356102d384826020860161026c565b91505092915050565b600080604083850312156102f3576102f261012e565b5b600061030185828601610181565b925050602083013567ffffffffffffffff81111561032257610321610133565b5b61032e858286016102ae565b9150509250929050565b600082825260208201905092915050565b7f526963657669746f7265206e6f6e2076616c69646f0000000000000000000000600082015250565b600061037f601583610338565b915061038a82610349565b602082019050919050565b600060208201905081810360008301526103ae81610372565b9050919050565b600081519050919050565b60005b838110156103de5780820151818401526020810190506103c3565b60008484015250505050565b60006103f5826103b5565b6103ff8185610338565b935061040f8185602086016103c0565b610418816101a0565b840191505092915050565b6000602082019050818103600083015261043d81846103ea565b90509291505056fea26469706673582212208410466bbc178567cca0251e144649e92e91df3b617ffff1c533f20ce2efabcd64736f6c634300081b0033",
  "linkReferences": {},
  "deployedLinkReferences": {}
}