{
  "_format": "hh-sol-artifact-1",
  "contractName": "WinnerNFT",
  "sourceName": "contracts/WinnerNFT.sol",
  "abi": [
    {
      "inputs": [],
      "stateMutability": "nonpayable",
      "type": "constructor"
    },
    {
      "inputs": [
        {
          "internalType": "address",
          "name": "sender",
          "type": "address"
        },
        {
          "internalType": "uint256",
          "name": "tokenId",
          "type": "uint256"
        },
        {
          "internalType": "address",
          "name": "owner",
          "type": "address"
        }
      ],
      "name": "ERC721IncorrectOwner",
      "type": "error"
    },
    {
      "inputs": [
        {
          "internalType": "address",
          "name": "operator",
          "type": "address"
        },
        {
          "internalType": "uint256",
          "name": "tokenId",
          "type": "uint256"
        }
      ],
      "name": "ERC721InsufficientApproval",
      "type": "error"
    },
    {
      "inputs": [
        {
          "internalType": "address",
          "name": "approver",
          "type": "address"
        }
      ],
      "name": "ERC721InvalidApprover",
      "type": "error"
    },
    {
      "inputs": [
        {
          "internalType": "address",
          "name": "operator",
          "type": "address"
        }
      ],
      "name": "ERC721InvalidOperator",
      "type": "error"
    },
    {
      "inputs": [
        {
          "internalType": "address",
          "name": "owner",
          "type": "address"
        }
      ],
      "name": "ERC721InvalidOwner",
      "type": "error"
    },
    {
      "inputs": [
        {
          "internalType": "address",
          "name": "receiver",
          "type": "address"
        }
      ],
      "name": "ERC721InvalidReceiver",
      "type": "error"
    },
    {
      "inputs": [
        {
          "internalType": "address",
          "name": "sender",
          "type": "address"
        }
      ],
      "name": "ERC721InvalidSender",
      "type": "error"
    },
    {
      "inputs": [
        {
          "internalType": "uint256",
          "name": "tokenId",
          "type": "uint256"
        }
      ],
      "name": "ERC721NonexistentToken",
      "type": "error"
    },
    {
      "anonymous": false,
      "inputs": [
        {
          "indexed": true,
          "internalType": "address",
          "name": "owner",
          "type": "address"
        },
        {
          "indexed": true,
          "internalType": "address",
          "name": "approved",
          "type": "address"
        },
        {
          "indexed": true,
          "internalType": "uint256",
          "name": "tokenId",
          "type": "uint256"
        }
      ],
      "name": "Approval",
      "type": "event"
    },
    {
      "anonymous": false,
      "inputs": [
        {
          "indexed": true,
          "internalType": "address",
          "name": "owner",
          "type": "address"
        },
        {
          "indexed": true,
          "internalType": "address",
          "name": "operator",
          "type": "address"
        },
        {
          "indexed": false,
          "internalType": "bool",
          "name": "approved",
          "type": "bool"
        }
      ],
      "name": "ApprovalForAll",
      "type": "event"
    },
    {
      "anonymous": false,
      "inputs": [
        {
          "indexed": false,
          "internalType": "uint256",
          "name": "_fromTokenId",
          "type": "uint256"
        },
        {
          "indexed": false,
          "internalType": "uint256",
          "name": "_toTokenId",
          "type": "uint256"
        }
      ],
      "name": "BatchMetadataUpdate",
      "type": "event"
    },
    {
      "anonymous": false,
      "inputs": [
        {
          "indexed": false,
          "internalType": "uint256",
          "name": "_tokenId",
          "type": "uint256"
        }
      ],
      "name": "MetadataUpdate",
      "type": "event"
    },
    {
      "anonymous": false,
      "inputs": [
        {
          "indexed": true,
          "internalType": "address",
          "name": "from",
          "type": "address"
        },
        {
          "indexed": true,
          "internalType": "address",
          "name": "to",
          "type": "address"
        },
        {
          "indexed": true,
          "internalType": "uint256",
          "name": "tokenId",
          "type": "uint256"
        }
      ],
      "name": "Transfer",
      "type": "event"
    },
    {
      "inputs": [
        {
          "internalType": "address",
          "name": "to",
          "type": "address"
        },
        {
          "internalType": "uint256",
          "name": "tokenId",
          "type": "uint256"
        }
      ],
      "name": "approve",
      "outputs": [],
      "stateMutability": "nonpayable",
      "type": "function"
    },
    {
      "inputs": [
        {
          "internalType": "address",
          "name": "owner",
          "type": "address"
        }
      ],
      "name": "balanceOf",
      "outputs": [
        {
          "internalType": "uint256",
          "name": "",
          "type": "uint256"
        }
      ],
      "stateMutability": "view",
      "type": "function"
    },
    {
      "inputs": [
        {
          "internalType": "uint256",
          "name": "tokenId",
          "type": "uint256"
        }
      ],
      "name": "getApproved",
      "outputs": [
        {
          "internalType": "address",
          "name": "",
          "type": "address"
        }
      ],
      "stateMutability": "view",
      "type": "function"
    },
    {
      "inputs": [],
      "name": "getNextTokenId",
      "outputs": [
        {
          "internalType": "uint256",
          "name": "",
          "type": "uint256"
        }
      ],
      "stateMutability": "view",
      "type": "function"
    },
    {
      "inputs": [
        {
          "internalType": "address",
          "name": "owner",
          "type": "address"
        },
        {
          "internalType": "address",
          "name": "operator",
          "type": "address"
        }
      ],
      "name": "isApprovedForAll",
      "outputs": [
        {
          "internalType": "bool",
          "name": "",
          "type": "bool"
        }
      ],
      "stateMutability": "view",
      "type": "function"
    },
    {
      "inputs": [
        {
          "internalType": "string",
          "name": "tokenUri",
          "type": "string"
        }
      ],
      "name": "mint",
      "outputs": [
        {
          "internalType": "uint256",
          "name": "",
          "type": "uint256"
        }
      ],
      "stateMutability": "nonpayable",
      "type": "function"
    },
    {
      "inputs": [],
      "name": "name",
      "outputs": [
        {
          "internalType": "string",
          "name": "",
          "type": "string"
        }
      ],
      "stateMutability": "view",
      "type": "function"
    },
    {
      "inputs": [
        {
          "internalType": "uint256",
          "name": "tokenId",
          "type": "uint256"
        }
      ],
      "name": "ownerOf",
      "outputs": [
        {
          "internalType": "address",
          "name": "",
          "type": "address"
        }
      ],
      "stateMutability": "view",
      "type": "function"
    },
    {
      "inputs": [
        {
          "internalType": "address",
          "name": "from",
          "type": "address"
        },
        {
          "internalType": "address",
          "name": "to",
          "type": "address"
        },
        {
          "internalType": "uint256",
          "name": "tokenId",
          "type": "uint256"
        }
      ],
      "name": "safeTransferFrom",
      "outputs": [],
      "stateMutability": "nonpayable",
      "type": "function"
    },
    {
      "inputs": [
        {
          "internalType": "address",
          "name": "from",
          "type": "address"
        },
        {
          "internalType": "address",
          "name": "to",
          "type": "address"
        },
        {
          "internalType": "uint256",
          "name": "tokenId",
          "type": "uint256"
        },
        {
          "internalType": "bytes",
          "name": "data",
          "type": "bytes"
        }
      ],
      "name": "safeTransferFrom",
      "outputs": [],
      "stateMutability": "nonpayable",
      "type": "function"
    },
    {
      "inputs": [
        {
          "internalType": "address",
          "name": "operator",
          "type": "address"
        },
        {
          "internalType": "bool",
          "name": "approved",
          "type": "bool"
        }
      ],
      "name": "setApprovalForAll",
      "outputs": [],
      "stateMutability": "nonpayable",
      "type": "function"
    },
    {
      "inputs": [
        {
          "internalType": "bytes4",
          "name": "interfaceId",
          "type": "bytes4"
        }
      ],
      "name": "supportsInterface",
      "outputs": [
        {
          "internalType": "bool",
          "name": "",
          "type": "bool"
        }
      ],
      "stateMutability": "view",
      "type": "function"
    },
    {
      "inputs": [],
      "name": "symbol",
      "outputs": [
        {
          "internalType": "string",
          "name": "",
          "type": "string"
        }
      ],
      "stateMutability": "view",
      "type": "function"
    },
    {
      "inputs": [
        {
          "internalType": "uint256",
          "name": "tokenId",
          "type": "uint256"
        }
      ],
      "name": "tokenURI",
      "outputs": [
        {
          "internalType": "string",
          "name": "",
          "type": "string"
        }
      ],
      "stateMutability": "view",
      "type": "function"
    },
    {
      "inputs": [
        {
          "internalType": "address",
          "name": "from",
          "type": "address"
        },
        {
          "internalType": "address",
          "name": "to",
          "type": "address"
        },
        {
          "internalType": "uint256",
          "name": "tokenId",
          "type": "uint256"
        }
      ],
      "name": "transferFrom",
      "outputs": [],
      "stateMutability": "nonpayable",
      "type": "function"
    }
  ],
  "bytecode": "0x608060405234801561001057600080fd5b506040518060400160405280600c81526020017f44656d65747261546f6b656e00000000000000000000000000000000000000008152506040518060400160405280600481526020017f444d545200000000000000000000000000000000000000000000000000000000815250816000908161008c91906102f4565b50806001908161009c91906102f4565b5050506103c6565b600081519050919050565b7f4e487b7100000000000000000000000000000000000000000000000000000000600052604160045260246000fd5b7f4e487b7100000000000000000000000000000000000000000000000000000000600052602260045260246000fd5b6000600282049050600182168061012557607f821691505b602082108103610138576101376100de565b5b50919050565b60008190508160005260206000209050919050565b60006020601f8301049050919050565b600082821b905092915050565b6000600883026101a07fffffffffffffffffffffffffffffffffffffffffffffffffffffffffffffffff82610163565b6101aa8683610163565b95508019841693508086168417925050509392505050565b6000819050919050565b6000819050919050565b60006101f16101ec6101e7846101c2565b6101cc565b6101c2565b9050919050565b6000819050919050565b61020b836101d6565b61021f610217826101f8565b848454610170565b825550505050565b600090565b610234610227565b61023f818484610202565b505050565b5b818110156102635761025860008261022c565b600181019050610245565b5050565b601f8211156102a8576102798161013e565b61028284610153565b81016020851015610291578190505b6102a561029d85610153565b830182610244565b50505b505050565b600082821c905092915050565b60006102cb600019846008026102ad565b1980831691505092915050565b60006102e483836102ba565b9150826002028217905092915050565b6102fd826100a4565b67ffffffffffffffff811115610316576103156100af565b5b610320825461010d565b61032b828285610267565b600060209050601f83116001811461035e576000841561034c578287015190505b61035685826102d8565b8655506103be565b601f19841661036c8661013e565b60005b828110156103945784890151825560018201915060208501945060208101905061036f565b868310156103b157848901516103ad601f8916826102ba565b8355505b6001600288020188555050505b505050505050565b6123e1806103d56000396000f3fe608060405234801561001057600080fd5b50600436106100f55760003560e01c806370a0823111610097578063c87b56dd11610066578063c87b56dd14610282578063caa0f92a146102b2578063d85d3d27146102d0578063e985e9c514610300576100f5565b806370a08231146101fc57806395d89b411461022c578063a22cb4651461024a578063b88d4fde14610266576100f5565b8063095ea7b3116100d3578063095ea7b31461017857806323b872dd1461019457806342842e0e146101b05780636352211e146101cc576100f5565b806301ffc9a7146100fa57806306fdde031461012a578063081812fc14610148575b600080fd5b610114600480360381019061010f919061184c565b610330565b6040516101219190611894565b60405180910390f35b610132610391565b60405161013f919061193f565b60405180910390f35b610162600480360381019061015d9190611997565b610423565b60405161016f9190611a05565b60405180910390f35b610192600480360381019061018d9190611a4c565b61043f565b005b6101ae60048036038101906101a99190611a8c565b610455565b005b6101ca60048036038101906101c59190611a8c565b610557565b005b6101e660048036038101906101e19190611997565b610577565b6040516101f39190611a05565b60405180910390f35b61021660048036038101906102119190611adf565b610589565b6040516102239190611b1b565b60405180910390f35b610234610643565b604051610241919061193f565b60405180910390f35b610264600480360381019061025f9190611b62565b6106d5565b005b610280600480360381019061027b9190611cd7565b6106eb565b005b61029c60048036038101906102979190611997565b610710565b6040516102a9919061193f565b60405180910390f35b6102ba610823565b6040516102c79190611b1b565b60405180910390f35b6102ea60048036038101906102e59190611dfb565b61082d565b6040516102f79190611b1b565b60405180910390f35b61031a60048036038101906103159190611e44565b61086a565b6040516103279190611894565b60405180910390f35b6000634906490660e01b7bffffffffffffffffffffffffffffffffffffffffffffffffffffffff1916827bffffffffffffffffffffffffffffffffffffffffffffffffffffffff1916148061038a5750610389826108fe565b5b9050919050565b6060600080546103a090611eb3565b80601f01602080910402602001604051908101604052809291908181526020018280546103cc90611eb3565b80156104195780601f106103ee57610100808354040283529160200191610419565b820191906000526020600020905b8154815290600101906020018083116103fc57829003601f168201915b5050505050905090565b600061042e826109e0565b5061043882610a68565b9050919050565b610451828261044c610aa5565b610aad565b5050565b600073ffffffffffffffffffffffffffffffffffffffff168273ffffffffffffffffffffffffffffffffffffffff16036104c75760006040517f64a0ae920000000000000000000000000000000000000000000000000000000081526004016104be9190611a05565b60405180910390fd5b60006104db83836104d6610aa5565b610abf565b90508373ffffffffffffffffffffffffffffffffffffffff168173ffffffffffffffffffffffffffffffffffffffff1614610551578382826040517f64283d7b00000000000000000000000000000000000000000000000000000000815260040161054893929190611ee4565b60405180910390fd5b50505050565b610572838383604051806020016040528060008152506106eb565b505050565b6000610582826109e0565b9050919050565b60008073ffffffffffffffffffffffffffffffffffffffff168273ffffffffffffffffffffffffffffffffffffffff16036105fc5760006040517f89c62b640000000000000000000000000000000000000000000000000000000081526004016105f39190611a05565b60405180910390fd5b600360008373ffffffffffffffffffffffffffffffffffffffff1673ffffffffffffffffffffffffffffffffffffffff168152602001908152602001600020549050919050565b60606001805461065290611eb3565b80601f016020809104026020016040519081016040528092919081815260200182805461067e90611eb3565b80156106cb5780601f106106a0576101008083540402835291602001916106cb565b820191906000526020600020905b8154815290600101906020018083116106ae57829003601f168201915b5050505050905090565b6106e76106e0610aa5565b8383610cd9565b5050565b6106f6848484610455565b61070a610701610aa5565b85858585610e48565b50505050565b606061071b826109e0565b50600060066000848152602001908152602001600020805461073c90611eb3565b80601f016020809104026020016040519081016040528092919081815260200182805461076890611eb3565b80156107b55780601f1061078a576101008083540402835291602001916107b5565b820191906000526020600020905b81548152906001019060200180831161079857829003601f168201915b5050505050905060006107c6610ff9565b905060008151036107db57819250505061081e565b6000825111156108105780826040516020016107f8929190611f57565b6040516020818303038152906040529250505061081e565b61081984611010565b925050505b919050565b6000600754905090565b60008060075490506007600081548092919061084890611faa565b91905055506108573382611079565b6108618184611172565b80915050919050565b6000600560008473ffffffffffffffffffffffffffffffffffffffff1673ffffffffffffffffffffffffffffffffffffffff16815260200190815260200160002060008373ffffffffffffffffffffffffffffffffffffffff1673ffffffffffffffffffffffffffffffffffffffff16815260200190815260200160002060009054906101000a900460ff16905092915050565b60007f80ac58cd000000000000000000000000000000000000000000000000000000007bffffffffffffffffffffffffffffffffffffffffffffffffffffffff1916827bffffffffffffffffffffffffffffffffffffffffffffffffffffffff191614806109c957507f5b5e139f000000000000000000000000000000000000000000000000000000007bffffffffffffffffffffffffffffffffffffffffffffffffffffffff1916827bffffffffffffffffffffffffffffffffffffffffffffffffffffffff1916145b806109d957506109d8826111ce565b5b9050919050565b6000806109ec83611238565b9050600073ffffffffffffffffffffffffffffffffffffffff168173ffffffffffffffffffffffffffffffffffffffff1603610a5f57826040517f7e273289000000000000000000000000000000000000000000000000000000008152600401610a569190611b1b565b60405180910390fd5b80915050919050565b60006004600083815260200190815260200160002060009054906101000a900473ffffffffffffffffffffffffffffffffffffffff169050919050565b600033905090565b610aba8383836001611275565b505050565b600080610acb84611238565b9050600073ffffffffffffffffffffffffffffffffffffffff168373ffffffffffffffffffffffffffffffffffffffff1614610b0d57610b0c81848661143a565b5b600073ffffffffffffffffffffffffffffffffffffffff168173ffffffffffffffffffffffffffffffffffffffff1614610b9e57610b4f600085600080611275565b6001600360008373ffffffffffffffffffffffffffffffffffffffff1673ffffffffffffffffffffffffffffffffffffffff168152602001908152602001600020600082825403925050819055505b600073ffffffffffffffffffffffffffffffffffffffff168573ffffffffffffffffffffffffffffffffffffffff1614610c21576001600360008773ffffffffffffffffffffffffffffffffffffffff1673ffffffffffffffffffffffffffffffffffffffff168152602001908152602001600020600082825401925050819055505b846002600086815260200190815260200160002060006101000a81548173ffffffffffffffffffffffffffffffffffffffff021916908373ffffffffffffffffffffffffffffffffffffffff160217905550838573ffffffffffffffffffffffffffffffffffffffff168273ffffffffffffffffffffffffffffffffffffffff167fddf252ad1be2c89b69c2b068fc378daa952ba7f163c4a11628f55a4df523b3ef60405160405180910390a4809150509392505050565b600073ffffffffffffffffffffffffffffffffffffffff168273ffffffffffffffffffffffffffffffffffffffff1603610d4a57816040517f5b08ba18000000000000000000000000000000000000000000000000000000008152600401610d419190611a05565b60405180910390fd5b80600560008573ffffffffffffffffffffffffffffffffffffffff1673ffffffffffffffffffffffffffffffffffffffff16815260200190815260200160002060008473ffffffffffffffffffffffffffffffffffffffff1673ffffffffffffffffffffffffffffffffffffffff16815260200190815260200160002060006101000a81548160ff0219169083151502179055508173ffffffffffffffffffffffffffffffffffffffff168373ffffffffffffffffffffffffffffffffffffffff167f17307eab39ab6107e8899845ad3d59bd9653f200f220920489ca2b5937696c3183604051610e3b9190611894565b60405180910390a3505050565b60008373ffffffffffffffffffffffffffffffffffffffff163b1115610ff2578273ffffffffffffffffffffffffffffffffffffffff1663150b7a02868685856040518563ffffffff1660e01b8152600401610ea79493929190612047565b6020604051808303816000875af1925050508015610ee357506040513d601f19601f82011682018060405250810190610ee091906120a8565b60015b610f67573d8060008114610f13576040519150601f19603f3d011682016040523d82523d6000602084013e610f18565b606091505b506000815103610f5f57836040517f64a0ae92000000000000000000000000000000000000000000000000000000008152600401610f569190611a05565b60405180910390fd5b805181602001fd5b63150b7a0260e01b7bffffffffffffffffffffffffffffffffffffffffffffffffffffffff1916817bffffffffffffffffffffffffffffffffffffffffffffffffffffffff191614610ff057836040517f64a0ae92000000000000000000000000000000000000000000000000000000008152600401610fe79190611a05565b60405180910390fd5b505b5050505050565b606060405180602001604052806000815250905090565b606061101b826109e0565b506000611026610ff9565b905060008151116110465760405180602001604052806000815250611071565b80611050846114fe565b604051602001611061929190611f57565b6040516020818303038152906040525b915050919050565b600073ffffffffffffffffffffffffffffffffffffffff168273ffffffffffffffffffffffffffffffffffffffff16036110eb5760006040517f64a0ae920000000000000000000000000000000000000000000000000000000081526004016110e29190611a05565b60405180910390fd5b60006110f983836000610abf565b9050600073ffffffffffffffffffffffffffffffffffffffff168173ffffffffffffffffffffffffffffffffffffffff161461116d5760006040517f73c6ac6e0000000000000000000000000000000000000000000000000000000081526004016111649190611a05565b60405180910390fd5b505050565b806006600084815260200190815260200160002090816111929190612281565b507ff8e1a15aba9398e019f0b49df1a4fde98ee17ae345cb5f6b5e2c27f5033e8ce7826040516111c29190611b1b565b60405180910390a15050565b60007f01ffc9a7000000000000000000000000000000000000000000000000000000007bffffffffffffffffffffffffffffffffffffffffffffffffffffffff1916827bffffffffffffffffffffffffffffffffffffffffffffffffffffffff1916149050919050565b60006002600083815260200190815260200160002060009054906101000a900473ffffffffffffffffffffffffffffffffffffffff169050919050565b80806112ae5750600073ffffffffffffffffffffffffffffffffffffffff168273ffffffffffffffffffffffffffffffffffffffff1614155b156113e25760006112be846109e0565b9050600073ffffffffffffffffffffffffffffffffffffffff168373ffffffffffffffffffffffffffffffffffffffff161415801561132957508273ffffffffffffffffffffffffffffffffffffffff168173ffffffffffffffffffffffffffffffffffffffff1614155b801561133c575061133a818461086a565b155b1561137e57826040517fa9fbf51f0000000000000000000000000000000000000000000000000000000081526004016113759190611a05565b60405180910390fd5b81156113e057838573ffffffffffffffffffffffffffffffffffffffff168273ffffffffffffffffffffffffffffffffffffffff167f8c5be1e5ebec7d5bd14f71427d1e84f3dd0314c0f7b2291e5b200ac8c7c3b92560405160405180910390a45b505b836004600085815260200190815260200160002060006101000a81548173ffffffffffffffffffffffffffffffffffffffff021916908373ffffffffffffffffffffffffffffffffffffffff16021790555050505050565b6114458383836115cc565b6114f957600073ffffffffffffffffffffffffffffffffffffffff168373ffffffffffffffffffffffffffffffffffffffff16036114ba57806040517f7e2732890000000000000000000000000000000000000000000000000000000081526004016114b19190611b1b565b60405180910390fd5b81816040517f177e802f0000000000000000000000000000000000000000000000000000000081526004016114f0929190612353565b60405180910390fd5b505050565b60606000600161150d8461168d565b01905060008167ffffffffffffffff81111561152c5761152b611bac565b5b6040519080825280601f01601f19166020018201604052801561155e5781602001600182028036833780820191505090505b509050600082602001820190505b6001156115c1578080600190039150507f3031323334353637383961626364656600000000000000000000000000000000600a86061a8153600a85816115b5576115b461237c565b5b0494506000850361156c575b819350505050919050565b60008073ffffffffffffffffffffffffffffffffffffffff168373ffffffffffffffffffffffffffffffffffffffff161415801561168457508273ffffffffffffffffffffffffffffffffffffffff168473ffffffffffffffffffffffffffffffffffffffff1614806116455750611644848461086a565b5b8061168357508273ffffffffffffffffffffffffffffffffffffffff1661166b83610a68565b73ffffffffffffffffffffffffffffffffffffffff16145b5b90509392505050565b600080600090507a184f03e93ff9f4daa797ed6e38ed64bf6a1f01000000000000000083106116eb577a184f03e93ff9f4daa797ed6e38ed64bf6a1f01000000000000000083816116e1576116e061237c565b5b0492506040810190505b6d04ee2d6d415b85acef81000000008310611728576d04ee2d6d415b85acef8100000000838161171e5761171d61237c565b5b0492506020810190505b662386f26fc10000831061175757662386f26fc10000838161174d5761174c61237c565b5b0492506010810190505b6305f5e1008310611780576305f5e10083816117765761177561237c565b5b0492506008810190505b61271083106117a557612710838161179b5761179a61237c565b5b0492506004810190505b606483106117c857606483816117be576117bd61237c565b5b0492506002810190505b600a83106117d7576001810190505b80915050919050565b6000604051905090565b600080fd5b600080fd5b60007fffffffff0000000000000000000000000000000000000000000000000000000082169050919050565b611829816117f4565b811461183457600080fd5b50565b60008135905061184681611820565b92915050565b600060208284031215611862576118616117ea565b5b600061187084828501611837565b91505092915050565b60008115159050919050565b61188e81611879565b82525050565b60006020820190506118a96000830184611885565b92915050565b600081519050919050565b600082825260208201905092915050565b60005b838110156118e95780820151818401526020810190506118ce565b60008484015250505050565b6000601f19601f8301169050919050565b6000611911826118af565b61191b81856118ba565b935061192b8185602086016118cb565b611934816118f5565b840191505092915050565b600060208201905081810360008301526119598184611906565b905092915050565b6000819050919050565b61197481611961565b811461197f57600080fd5b50565b6000813590506119918161196b565b92915050565b6000602082840312156119ad576119ac6117ea565b5b60006119bb84828501611982565b91505092915050565b600073ffffffffffffffffffffffffffffffffffffffff82169050919050565b60006119ef826119c4565b9050919050565b6119ff816119e4565b82525050565b6000602082019050611a1a60008301846119f6565b92915050565b611a29816119e4565b8114611a3457600080fd5b50565b600081359050611a4681611a20565b92915050565b60008060408385031215611a6357611a626117ea565b5b6000611a7185828601611a37565b9250506020611a8285828601611982565b9150509250929050565b600080600060608486031215611aa557611aa46117ea565b5b6000611ab386828701611a37565b9350506020611ac486828701611a37565b9250506040611ad586828701611982565b9150509250925092565b600060208284031215611af557611af46117ea565b5b6000611b0384828501611a37565b91505092915050565b611b1581611961565b82525050565b6000602082019050611b306000830184611b0c565b92915050565b611b3f81611879565b8114611b4a57600080fd5b50565b600081359050611b5c81611b36565b92915050565b60008060408385031215611b7957611b786117ea565b5b6000611b8785828601611a37565b9250506020611b9885828601611b4d565b9150509250929050565b600080fd5b600080fd5b7f4e487b7100000000000000000000000000000000000000000000000000000000600052604160045260246000fd5b611be4826118f5565b810181811067ffffffffffffffff82111715611c0357611c02611bac565b5b80604052505050565b6000611c166117e0565b9050611c228282611bdb565b919050565b600067ffffffffffffffff821115611c4257611c41611bac565b5b611c4b826118f5565b9050602081019050919050565b82818337600083830152505050565b6000611c7a611c7584611c27565b611c0c565b905082815260208101848484011115611c9657611c95611ba7565b5b611ca1848285611c58565b509392505050565b600082601f830112611cbe57611cbd611ba2565b5b8135611cce848260208601611c67565b91505092915050565b60008060008060808587031215611cf157611cf06117ea565b5b6000611cff87828801611a37565b9450506020611d1087828801611a37565b9350506040611d2187828801611982565b925050606085013567ffffffffffffffff811115611d4257611d416117ef565b5b611d4e87828801611ca9565b91505092959194509250565b600067ffffffffffffffff821115611d7557611d74611bac565b5b611d7e826118f5565b9050602081019050919050565b6000611d9e611d9984611d5a565b611c0c565b905082815260208101848484011115611dba57611db9611ba7565b5b611dc5848285611c58565b509392505050565b600082601f830112611de257611de1611ba2565b5b8135611df2848260208601611d8b565b91505092915050565b600060208284031215611e1157611e106117ea565b5b600082013567ffffffffffffffff811115611e2f57611e2e6117ef565b5b611e3b84828501611dcd565b91505092915050565b60008060408385031215611e5b57611e5a6117ea565b5b6000611e6985828601611a37565b9250506020611e7a85828601611a37565b9150509250929050565b7f4e487b7100000000000000000000000000000000000000000000000000000000600052602260045260246000fd5b60006002820490506001821680611ecb57607f821691505b602082108103611ede57611edd611e84565b5b50919050565b6000606082019050611ef960008301866119f6565b611f066020830185611b0c565b611f1360408301846119f6565b949350505050565b600081905092915050565b6000611f31826118af565b611f3b8185611f1b565b9350611f4b8185602086016118cb565b80840191505092915050565b6000611f638285611f26565b9150611f6f8284611f26565b91508190509392505050565b7f4e487b7100000000000000000000000000000000000000000000000000000000600052601160045260246000fd5b6000611fb582611961565b91507fffffffffffffffffffffffffffffffffffffffffffffffffffffffffffffffff8203611fe757611fe6611f7b565b5b600182019050919050565b600081519050919050565b600082825260208201905092915050565b600061201982611ff2565b6120238185611ffd565b93506120338185602086016118cb565b61203c816118f5565b840191505092915050565b600060808201905061205c60008301876119f6565b61206960208301866119f6565b6120766040830185611b0c565b8181036060830152612088818461200e565b905095945050505050565b6000815190506120a281611820565b92915050565b6000602082840312156120be576120bd6117ea565b5b60006120cc84828501612093565b91505092915050565b60008190508160005260206000209050919050565b60006020601f8301049050919050565b600082821b905092915050565b6000600883026121377fffffffffffffffffffffffffffffffffffffffffffffffffffffffffffffffff826120fa565b61214186836120fa565b95508019841693508086168417925050509392505050565b6000819050919050565b600061217e61217961217484611961565b612159565b611961565b9050919050565b6000819050919050565b61219883612163565b6121ac6121a482612185565b848454612107565b825550505050565b600090565b6121c16121b4565b6121cc81848461218f565b505050565b5b818110156121f0576121e56000826121b9565b6001810190506121d2565b5050565b601f82111561223557612206816120d5565b61220f846120ea565b8101602085101561221e578190505b61223261222a856120ea565b8301826121d1565b50505b505050565b600082821c905092915050565b60006122586000198460080261223a565b1980831691505092915050565b60006122718383612247565b9150826002028217905092915050565b61228a826118af565b67ffffffffffffffff8111156122a3576122a2611bac565b5b6122ad8254611eb3565b6122b88282856121f4565b600060209050601f8311600181146122eb57600084156122d9578287015190505b6122e38582612265565b86555061234b565b601f1984166122f9866120d5565b60005b82811015612321578489015182556001820191506020850194506020810190506122fc565b8683101561233e578489015161233a601f891682612247565b8355505b6001600288020188555050505b505050505050565b600060408201905061236860008301856119f6565b6123756020830184611b0c565b9392505050565b7f4e487b7100000000000000000000000000000000000000000000000000000000600052601260045260246000fdfea2646970667358221220d77388bc4dbf2adee4bf58f71ef38029f1ddbd7dffd79454999cec7f4380f74464736f6c634300081b0033",
  "linkReferences": {},
  "deployedLinkReferences": {}
}