{
  "_format": "hh-sol-artifact-1",
  "contractName": "NftContract",
  "sourceName": "contracts/NftContract.sol",
  "abi": [
    {
      "inputs": [],
      "stateMutability": "nonpayable",
      "type": "constructor"
    },
    {
      "inputs": [
        {
          "internalType": "address",
          "name": "sender",
          "type": "address"
        },
        {
          "internalType": "uint256",
          "name": "tokenId",
          "type": "uint256"
        },
        {
          "internalType": "address",
          "name": "owner",
          "type": "address"
        }
      ],
      "name": "ERC721IncorrectOwner",
      "type": "error"
    },
    {
      "inputs": [
        {
          "internalType": "address",
          "name": "operator",
          "type": "address"
        },
        {
          "internalType": "uint256",
          "name": "tokenId",
          "type": "uint256"
        }
      ],
      "name": "ERC721InsufficientApproval",
      "type": "error"
    },
    {
      "inputs": [
        {
          "internalType": "address",
          "name": "approver",
          "type": "address"
        }
      ],
      "name": "ERC721InvalidApprover",
      "type": "error"
    },
    {
      "inputs": [
        {
          "internalType": "address",
          "name": "operator",
          "type": "address"
        }
      ],
      "name": "ERC721InvalidOperator",
      "type": "error"
    },
    {
      "inputs": [
        {
          "internalType": "address",
          "name": "owner",
          "type": "address"
        }
      ],
      "name": "ERC721InvalidOwner",
      "type": "error"
    },
    {
      "inputs": [
        {
          "internalType": "address",
          "name": "receiver",
          "type": "address"
        }
      ],
      "name": "ERC721InvalidReceiver",
      "type": "error"
    },
    {
      "inputs": [
        {
          "internalType": "address",
          "name": "sender",
          "type": "address"
        }
      ],
      "name": "ERC721InvalidSender",
      "type": "error"
    },
    {
      "inputs": [
        {
          "internalType": "uint256",
          "name": "tokenId",
          "type": "uint256"
        }
      ],
      "name": "ERC721NonexistentToken",
      "type": "error"
    },
    {
      "anonymous": false,
      "inputs": [
        {
          "indexed": true,
          "internalType": "address",
          "name": "owner",
          "type": "address"
        },
        {
          "indexed": true,
          "internalType": "address",
          "name": "approved",
          "type": "address"
        },
        {
          "indexed": true,
          "internalType": "uint256",
          "name": "tokenId",
          "type": "uint256"
        }
      ],
      "name": "Approval",
      "type": "event"
    },
    {
      "anonymous": false,
      "inputs": [
        {
          "indexed": true,
          "internalType": "address",
          "name": "owner",
          "type": "address"
        },
        {
          "indexed": true,
          "internalType": "address",
          "name": "operator",
          "type": "address"
        },
        {
          "indexed": false,
          "internalType": "bool",
          "name": "approved",
          "type": "bool"
        }
      ],
      "name": "ApprovalForAll",
      "type": "event"
    },
    {
      "anonymous": false,
      "inputs": [
        {
          "indexed": true,
          "internalType": "address",
          "name": "from",
          "type": "address"
        },
        {
          "indexed": true,
          "internalType": "address",
          "name": "to",
          "type": "address"
        },
        {
          "indexed": true,
          "internalType": "uint256",
          "name": "tokenId",
          "type": "uint256"
        }
      ],
      "name": "Transfer",
      "type": "event"
    },
    {
      "inputs": [
        {
          "internalType": "address",
          "name": "to",
          "type": "address"
        },
        {
          "internalType": "uint256",
          "name": "tokenId",
          "type": "uint256"
        }
      ],
      "name": "approve",
      "outputs": [],
      "stateMutability": "nonpayable",
      "type": "function"
    },
    {
      "inputs": [
        {
          "internalType": "address",
          "name": "owner",
          "type": "address"
        }
      ],
      "name": "balanceOf",
      "outputs": [
        {
          "internalType": "uint256",
          "name": "",
          "type": "uint256"
        }
      ],
      "stateMutability": "view",
      "type": "function"
    },
    {
      "inputs": [
        {
          "internalType": "uint256",
          "name": "tokenId",
          "type": "uint256"
        }
      ],
      "name": "buyNFT",
      "outputs": [],
      "stateMutability": "payable",
      "type": "function"
    },
    {
      "inputs": [
        {
          "internalType": "uint256",
          "name": "tokenId",
          "type": "uint256"
        }
      ],
      "name": "getApproved",
      "outputs": [
        {
          "internalType": "address",
          "name": "",
          "type": "address"
        }
      ],
      "stateMutability": "view",
      "type": "function"
    },
    {
      "inputs": [
        {
          "internalType": "address",
          "name": "owner",
          "type": "address"
        },
        {
          "internalType": "address",
          "name": "operator",
          "type": "address"
        }
      ],
      "name": "isApprovedForAll",
      "outputs": [
        {
          "internalType": "bool",
          "name": "",
          "type": "bool"
        }
      ],
      "stateMutability": "view",
      "type": "function"
    },
    {
      "inputs": [
        {
          "internalType": "address",
          "name": "to",
          "type": "address"
        },
        {
          "internalType": "string",
          "name": "rarity",
          "type": "string"
        }
      ],
      "name": "mintNFT",
      "outputs": [],
      "stateMutability": "nonpayable",
      "type": "function"
    },
    {
      "inputs": [],
      "name": "name",
      "outputs": [
        {
          "internalType": "string",
          "name": "",
          "type": "string"
        }
      ],
      "stateMutability": "view",
      "type": "function"
    },
    {
      "inputs": [
        {
          "internalType": "uint256",
          "name": "tokenId",
          "type": "uint256"
        }
      ],
      "name": "ownerOf",
      "outputs": [
        {
          "internalType": "address",
          "name": "",
          "type": "address"
        }
      ],
      "stateMutability": "view",
      "type": "function"
    },
    {
      "inputs": [
        {
          "internalType": "address",
          "name": "from",
          "type": "address"
        },
        {
          "internalType": "address",
          "name": "to",
          "type": "address"
        },
        {
          "internalType": "uint256",
          "name": "tokenId",
          "type": "uint256"
        }
      ],
      "name": "safeTransferFrom",
      "outputs": [],
      "stateMutability": "nonpayable",
      "type": "function"
    },
    {
      "inputs": [
        {
          "internalType": "address",
          "name": "from",
          "type": "address"
        },
        {
          "internalType": "address",
          "name": "to",
          "type": "address"
        },
        {
          "internalType": "uint256",
          "name": "tokenId",
          "type": "uint256"
        },
        {
          "internalType": "bytes",
          "name": "data",
          "type": "bytes"
        }
      ],
      "name": "safeTransferFrom",
      "outputs": [],
      "stateMutability": "nonpayable",
      "type": "function"
    },
    {
      "inputs": [
        {
          "internalType": "address",
          "name": "operator",
          "type": "address"
        },
        {
          "internalType": "bool",
          "name": "approved",
          "type": "bool"
        }
      ],
      "name": "setApprovalForAll",
      "outputs": [],
      "stateMutability": "nonpayable",
      "type": "function"
    },
    {
      "inputs": [
        {
          "internalType": "uint256",
          "name": "tokenId",
          "type": "uint256"
        },
        {
          "internalType": "uint256",
          "name": "price",
          "type": "uint256"
        }
      ],
      "name": "setTokenPrice",
      "outputs": [],
      "stateMutability": "nonpayable",
      "type": "function"
    },
    {
      "inputs": [
        {
          "internalType": "bytes4",
          "name": "interfaceId",
          "type": "bytes4"
        }
      ],
      "name": "supportsInterface",
      "outputs": [
        {
          "internalType": "bool",
          "name": "",
          "type": "bool"
        }
      ],
      "stateMutability": "view",
      "type": "function"
    },
    {
      "inputs": [],
      "name": "symbol",
      "outputs": [
        {
          "internalType": "string",
          "name": "",
          "type": "string"
        }
      ],
      "stateMutability": "view",
      "type": "function"
    },
    {
      "inputs": [
        {
          "internalType": "uint256",
          "name": "",
          "type": "uint256"
        }
      ],
      "name": "tokenPrices",
      "outputs": [
        {
          "internalType": "uint256",
          "name": "",
          "type": "uint256"
        }
      ],
      "stateMutability": "view",
      "type": "function"
    },
    {
      "inputs": [
        {
          "internalType": "uint256",
          "name": "",
          "type": "uint256"
        }
      ],
      "name": "tokenRarity",
      "outputs": [
        {
          "internalType": "string",
          "name": "",
          "type": "string"
        }
      ],
      "stateMutability": "view",
      "type": "function"
    },
    {
      "inputs": [
        {
          "internalType": "uint256",
          "name": "tokenId",
          "type": "uint256"
        }
      ],
      "name": "tokenURI",
      "outputs": [
        {
          "internalType": "string",
          "name": "",
          "type": "string"
        }
      ],
      "stateMutability": "view",
      "type": "function"
    },
    {
      "inputs": [
        {
          "internalType": "address",
          "name": "from",
          "type": "address"
        },
        {
          "internalType": "address",
          "name": "to",
          "type": "address"
        },
        {
          "internalType": "uint256",
          "name": "tokenId",
          "type": "uint256"
        }
      ],
      "name": "transferFrom",
      "outputs": [],
      "stateMutability": "nonpayable",
      "type": "function"
    },
    {
      "inputs": [
        {
          "internalType": "address",
          "name": "from",
          "type": "address"
        },
        {
          "internalType": "address",
          "name": "to",
          "type": "address"
        },
        {
          "internalType": "uint256",
          "name": "tokenId",
          "type": "uint256"
        }
      ],
      "name": "transferNFT",
      "outputs": [],
      "stateMutability": "nonpayable",
      "type": "function"
    }
  ],
  "bytecode": "0x608060405234801561001057600080fd5b506040518060400160405280600e81526020017f4e46544d61726b6574706c6163650000000000000000000000000000000000008152506040518060400160405280600481526020017f4e46544d00000000000000000000000000000000000000000000000000000000815250816000908161008c91906102f4565b50806001908161009c91906102f4565b5050506103c6565b600081519050919050565b7f4e487b7100000000000000000000000000000000000000000000000000000000600052604160045260246000fd5b7f4e487b7100000000000000000000000000000000000000000000000000000000600052602260045260246000fd5b6000600282049050600182168061012557607f821691505b602082108103610138576101376100de565b5b50919050565b60008190508160005260206000209050919050565b60006020601f8301049050919050565b600082821b905092915050565b6000600883026101a07fffffffffffffffffffffffffffffffffffffffffffffffffffffffffffffffff82610163565b6101aa8683610163565b95508019841693508086168417925050509392505050565b6000819050919050565b6000819050919050565b60006101f16101ec6101e7846101c2565b6101cc565b6101c2565b9050919050565b6000819050919050565b61020b836101d6565b61021f610217826101f8565b848454610170565b825550505050565b600090565b610234610227565b61023f818484610202565b505050565b5b818110156102635761025860008261022c565b600181019050610245565b5050565b601f8211156102a8576102798161013e565b61028284610153565b81016020851015610291578190505b6102a561029d85610153565b830182610244565b50505b505050565b600082821c905092915050565b60006102cb600019846008026102ad565b1980831691505092915050565b60006102e483836102ba565b9150826002028217905092915050565b6102fd826100a4565b67ffffffffffffffff811115610316576103156100af565b5b610320825461010d565b61032b828285610267565b600060209050601f83116001811461035e576000841561034c578287015190505b61035685826102d8565b8655506103be565b601f19841661036c8661013e565b60005b828110156103945784890151825560018201915060208501945060208101905061036f565b868310156103b157848901516103ad601f8916826102ba565b8355505b6001600288020188555050505b505050505050565b612926806103d56000396000f3fe6080604052600436106101145760003560e01c806370a08231116100a0578063c87b56dd11610064578063c87b56dd146103b2578063e5afe3e6146103ef578063e985e9c51461042c578063eacabe1414610469578063eb685c471461049257610114565b806370a08231146102bb57806395d89b41146102f8578063a22cb46514610323578063afb0a3691461034c578063b88d4fde1461038957610114565b806323b872dd116100e757806323b872dd146101e757806342842e0e1461021057806351ed8288146102395780636352211e1461025557806369e9cae11461029257610114565b806301ffc9a71461011957806306fdde0314610156578063081812fc14610181578063095ea7b3146101be575b600080fd5b34801561012557600080fd5b50610140600480360381019061013b9190611c66565b6104bb565b60405161014d9190611cae565b60405180910390f35b34801561016257600080fd5b5061016b61059d565b6040516101789190611d59565b60405180910390f35b34801561018d57600080fd5b506101a860048036038101906101a39190611db1565b61062f565b6040516101b59190611e1f565b60405180910390f35b3480156101ca57600080fd5b506101e560048036038101906101e09190611e66565b61064b565b005b3480156101f357600080fd5b5061020e60048036038101906102099190611ea6565b610661565b005b34801561021c57600080fd5b5061023760048036038101906102329190611ea6565b610763565b005b610253600480360381019061024e9190611db1565b610783565b005b34801561026157600080fd5b5061027c60048036038101906102779190611db1565b61085b565b6040516102899190611e1f565b60405180910390f35b34801561029e57600080fd5b506102b960048036038101906102b49190611ea6565b61086d565b005b3480156102c757600080fd5b506102e260048036038101906102dd9190611ef9565b6108f3565b6040516102ef9190611f35565b60405180910390f35b34801561030457600080fd5b5061030d6109ad565b60405161031a9190611d59565b60405180910390f35b34801561032f57600080fd5b5061034a60048036038101906103459190611f7c565b610a3f565b005b34801561035857600080fd5b50610373600480360381019061036e9190611db1565b610a55565b6040516103809190611d59565b60405180910390f35b34801561039557600080fd5b506103b060048036038101906103ab91906120f1565b610af5565b005b3480156103be57600080fd5b506103d960048036038101906103d49190611db1565b610b1a565b6040516103e69190611d59565b60405180910390f35b3480156103fb57600080fd5b5061041660048036038101906104119190611db1565b610b83565b6040516104239190611f35565b60405180910390f35b34801561043857600080fd5b50610453600480360381019061044e9190612174565b610b9b565b6040516104609190611cae565b60405180910390f35b34801561047557600080fd5b50610490600480360381019061048b9190612255565b610c2f565b005b34801561049e57600080fd5b506104b960048036038101906104b491906122b1565b610c7e565b005b60007f80ac58cd000000000000000000000000000000000000000000000000000000007bffffffffffffffffffffffffffffffffffffffffffffffffffffffff1916827bffffffffffffffffffffffffffffffffffffffffffffffffffffffff1916148061058657507f5b5e139f000000000000000000000000000000000000000000000000000000007bffffffffffffffffffffffffffffffffffffffffffffffffffffffff1916827bffffffffffffffffffffffffffffffffffffffffffffffffffffffff1916145b80610596575061059582610d10565b5b9050919050565b6060600080546105ac90612320565b80601f01602080910402602001604051908101604052809291908181526020018280546105d890612320565b80156106255780601f106105fa57610100808354040283529160200191610625565b820191906000526020600020905b81548152906001019060200180831161060857829003601f168201915b5050505050905090565b600061063a82610d7a565b5061064482610e02565b9050919050565b61065d8282610658610e3f565b610e47565b5050565b600073ffffffffffffffffffffffffffffffffffffffff168273ffffffffffffffffffffffffffffffffffffffff16036106d35760006040517f64a0ae920000000000000000000000000000000000000000000000000000000081526004016106ca9190611e1f565b60405180910390fd5b60006106e783836106e2610e3f565b610e59565b90508373ffffffffffffffffffffffffffffffffffffffff168173ffffffffffffffffffffffffffffffffffffffff161461075d578382826040517f64283d7b00000000000000000000000000000000000000000000000000000000815260040161075493929190612351565b60405180910390fd5b50505050565b61077e83838360405180602001604052806000815250610af5565b505050565b600060076000838152602001908152602001600020549050803410156107de576040517f08c379a00000000000000000000000000000000000000000000000000000000081526004016107d5906123d4565b60405180910390fd5b60006107e98361085b565b90506107f6813385611073565b8073ffffffffffffffffffffffffffffffffffffffff166108fc349081150290604051600060405180830381858888f1935050505015801561083c573d6000803e3d6000fd5b5060006007600085815260200190815260200160002081905550505050565b600061086682610d7a565b9050919050565b8273ffffffffffffffffffffffffffffffffffffffff1661088d8261085b565b73ffffffffffffffffffffffffffffffffffffffff16146108e3576040517f08c379a00000000000000000000000000000000000000000000000000000000081526004016108da90612440565b60405180910390fd5b6108ee838383611073565b505050565b60008073ffffffffffffffffffffffffffffffffffffffff168273ffffffffffffffffffffffffffffffffffffffff16036109665760006040517f89c62b6400000000000000000000000000000000000000000000000000000000815260040161095d9190611e1f565b60405180910390fd5b600360008373ffffffffffffffffffffffffffffffffffffffff1673ffffffffffffffffffffffffffffffffffffffff168152602001908152602001600020549050919050565b6060600180546109bc90612320565b80601f01602080910402602001604051908101604052809291908181526020018280546109e890612320565b8015610a355780601f10610a0a57610100808354040283529160200191610a35565b820191906000526020600020905b815481529060010190602001808311610a1857829003601f168201915b5050505050905090565b610a51610a4a610e3f565b83836111e0565b5050565b60086020528060005260406000206000915090508054610a7490612320565b80601f0160208091040260200160405190810160405280929190818152602001828054610aa090612320565b8015610aed5780601f10610ac257610100808354040283529160200191610aed565b820191906000526020600020905b815481529060010190602001808311610ad057829003601f168201915b505050505081565b610b00848484610661565b610b14610b0b610e3f565b8585858561134f565b50505050565b6060610b2582610d7a565b506000610b30611500565b90506000815111610b505760405180602001604052806000815250610b7b565b80610b5a84611517565b604051602001610b6b92919061249c565b6040516020818303038152906040525b915050919050565b60076020528060005260406000206000915090505481565b6000600560008473ffffffffffffffffffffffffffffffffffffffff1673ffffffffffffffffffffffffffffffffffffffff16815260200190815260200160002060008373ffffffffffffffffffffffffffffffffffffffff1673ffffffffffffffffffffffffffffffffffffffff16815260200190815260200160002060009054906101000a900460ff16905092915050565b60006006549050610c4083826115e5565b81600860008381526020019081526020016000209081610c60919061266c565b5060066000815480929190610c749061276d565b9190505550505050565b3373ffffffffffffffffffffffffffffffffffffffff16610c9e8361085b565b73ffffffffffffffffffffffffffffffffffffffff1614610cf4576040517f08c379a0000000000000000000000000000000000000000000000000000000008152600401610ceb90612440565b60405180910390fd5b8060076000848152602001908152602001600020819055505050565b60007f01ffc9a7000000000000000000000000000000000000000000000000000000007bffffffffffffffffffffffffffffffffffffffffffffffffffffffff1916827bffffffffffffffffffffffffffffffffffffffffffffffffffffffff1916149050919050565b600080610d8683611603565b9050600073ffffffffffffffffffffffffffffffffffffffff168173ffffffffffffffffffffffffffffffffffffffff1603610df957826040517f7e273289000000000000000000000000000000000000000000000000000000008152600401610df09190611f35565b60405180910390fd5b80915050919050565b60006004600083815260200190815260200160002060009054906101000a900473ffffffffffffffffffffffffffffffffffffffff169050919050565b600033905090565b610e548383836001611640565b505050565b600080610e6584611603565b9050600073ffffffffffffffffffffffffffffffffffffffff168373ffffffffffffffffffffffffffffffffffffffff1614610ea757610ea6818486611805565b5b600073ffffffffffffffffffffffffffffffffffffffff168173ffffffffffffffffffffffffffffffffffffffff1614610f3857610ee9600085600080611640565b6001600360008373ffffffffffffffffffffffffffffffffffffffff1673ffffffffffffffffffffffffffffffffffffffff168152602001908152602001600020600082825403925050819055505b600073ffffffffffffffffffffffffffffffffffffffff168573ffffffffffffffffffffffffffffffffffffffff1614610fbb576001600360008773ffffffffffffffffffffffffffffffffffffffff1673ffffffffffffffffffffffffffffffffffffffff168152602001908152602001600020600082825401925050819055505b846002600086815260200190815260200160002060006101000a81548173ffffffffffffffffffffffffffffffffffffffff021916908373ffffffffffffffffffffffffffffffffffffffff160217905550838573ffffffffffffffffffffffffffffffffffffffff168273ffffffffffffffffffffffffffffffffffffffff167fddf252ad1be2c89b69c2b068fc378daa952ba7f163c4a11628f55a4df523b3ef60405160405180910390a4809150509392505050565b600073ffffffffffffffffffffffffffffffffffffffff168273ffffffffffffffffffffffffffffffffffffffff16036110e55760006040517f64a0ae920000000000000000000000000000000000000000000000000000000081526004016110dc9190611e1f565b60405180910390fd5b60006110f383836000610e59565b9050600073ffffffffffffffffffffffffffffffffffffffff168173ffffffffffffffffffffffffffffffffffffffff160361116657816040517f7e27328900000000000000000000000000000000000000000000000000000000815260040161115d9190611f35565b60405180910390fd5b8373ffffffffffffffffffffffffffffffffffffffff168173ffffffffffffffffffffffffffffffffffffffff16146111da578382826040517f64283d7b0000000000000000000000000000000000000000000000000000000081526004016111d193929190612351565b60405180910390fd5b50505050565b600073ffffffffffffffffffffffffffffffffffffffff168273ffffffffffffffffffffffffffffffffffffffff160361125157816040517f5b08ba180000000000000000000000000000000000000000000000000000000081526004016112489190611e1f565b60405180910390fd5b80600560008573ffffffffffffffffffffffffffffffffffffffff1673ffffffffffffffffffffffffffffffffffffffff16815260200190815260200160002060008473ffffffffffffffffffffffffffffffffffffffff1673ffffffffffffffffffffffffffffffffffffffff16815260200190815260200160002060006101000a81548160ff0219169083151502179055508173ffffffffffffffffffffffffffffffffffffffff168373ffffffffffffffffffffffffffffffffffffffff167f17307eab39ab6107e8899845ad3d59bd9653f200f220920489ca2b5937696c31836040516113429190611cae565b60405180910390a3505050565b60008373ffffffffffffffffffffffffffffffffffffffff163b11156114f9578273ffffffffffffffffffffffffffffffffffffffff1663150b7a02868685856040518563ffffffff1660e01b81526004016113ae949392919061280a565b6020604051808303816000875af19250505080156113ea57506040513d601f19601f820116820180604052508101906113e7919061286b565b60015b61146e573d806000811461141a576040519150601f19603f3d011682016040523d82523d6000602084013e61141f565b606091505b50600081510361146657836040517f64a0ae9200000000000000000000000000000000000000000000000000000000815260040161145d9190611e1f565b60405180910390fd5b805181602001fd5b63150b7a0260e01b7bffffffffffffffffffffffffffffffffffffffffffffffffffffffff1916817bffffffffffffffffffffffffffffffffffffffffffffffffffffffff1916146114f757836040517f64a0ae920000000000000000000000000000000000000000000000000000000081526004016114ee9190611e1f565b60405180910390fd5b505b5050505050565b606060405180602001604052806000815250905090565b606060006001611526846118c9565b01905060008167ffffffffffffffff81111561154557611544611fc6565b5b6040519080825280601f01601f1916602001820160405280156115775781602001600182028036833780820191505090505b509050600082602001820190505b6001156115da578080600190039150507f3031323334353637383961626364656600000000000000000000000000000000600a86061a8153600a85816115ce576115cd612898565b5b04945060008503611585575b819350505050919050565b6115ff828260405180602001604052806000815250611a1c565b5050565b60006002600083815260200190815260200160002060009054906101000a900473ffffffffffffffffffffffffffffffffffffffff169050919050565b80806116795750600073ffffffffffffffffffffffffffffffffffffffff168273ffffffffffffffffffffffffffffffffffffffff1614155b156117ad57600061168984610d7a565b9050600073ffffffffffffffffffffffffffffffffffffffff168373ffffffffffffffffffffffffffffffffffffffff16141580156116f457508273ffffffffffffffffffffffffffffffffffffffff168173ffffffffffffffffffffffffffffffffffffffff1614155b801561170757506117058184610b9b565b155b1561174957826040517fa9fbf51f0000000000000000000000000000000000000000000000000000000081526004016117409190611e1f565b60405180910390fd5b81156117ab57838573ffffffffffffffffffffffffffffffffffffffff168273ffffffffffffffffffffffffffffffffffffffff167f8c5be1e5ebec7d5bd14f71427d1e84f3dd0314c0f7b2291e5b200ac8c7c3b92560405160405180910390a45b505b836004600085815260200190815260200160002060006101000a81548173ffffffffffffffffffffffffffffffffffffffff021916908373ffffffffffffffffffffffffffffffffffffffff16021790555050505050565b611810838383611a40565b6118c457600073ffffffffffffffffffffffffffffffffffffffff168373ffffffffffffffffffffffffffffffffffffffff160361188557806040517f7e27328900000000000000000000000000000000000000000000000000000000815260040161187c9190611f35565b60405180910390fd5b81816040517f177e802f0000000000000000000000000000000000000000000000000000000081526004016118bb9291906128c7565b60405180910390fd5b505050565b600080600090507a184f03e93ff9f4daa797ed6e38ed64bf6a1f0100000000000000008310611927577a184f03e93ff9f4daa797ed6e38ed64bf6a1f010000000000000000838161191d5761191c612898565b5b0492506040810190505b6d04ee2d6d415b85acef81000000008310611964576d04ee2d6d415b85acef8100000000838161195a57611959612898565b5b0492506020810190505b662386f26fc10000831061199357662386f26fc10000838161198957611988612898565b5b0492506010810190505b6305f5e10083106119bc576305f5e10083816119b2576119b1612898565b5b0492506008810190505b61271083106119e15761271083816119d7576119d6612898565b5b0492506004810190505b60648310611a0457606483816119fa576119f9612898565b5b0492506002810190505b600a8310611a13576001810190505b80915050919050565b611a268383611b01565b611a3b611a31610e3f565b600085858561134f565b505050565b60008073ffffffffffffffffffffffffffffffffffffffff168373ffffffffffffffffffffffffffffffffffffffff1614158015611af857508273ffffffffffffffffffffffffffffffffffffffff168473ffffffffffffffffffffffffffffffffffffffff161480611ab95750611ab88484610b9b565b5b80611af757508273ffffffffffffffffffffffffffffffffffffffff16611adf83610e02565b73ffffffffffffffffffffffffffffffffffffffff16145b5b90509392505050565b600073ffffffffffffffffffffffffffffffffffffffff168273ffffffffffffffffffffffffffffffffffffffff1603611b735760006040517f64a0ae92000000000000000000000000000000000000000000000000000000008152600401611b6a9190611e1f565b60405180910390fd5b6000611b8183836000610e59565b9050600073ffffffffffffffffffffffffffffffffffffffff168173ffffffffffffffffffffffffffffffffffffffff1614611bf55760006040517f73c6ac6e000000000000000000000000000000000000000000000000000000008152600401611bec9190611e1f565b60405180910390fd5b505050565b6000604051905090565b600080fd5b600080fd5b60007fffffffff0000000000000000000000000000000000000000000000000000000082169050919050565b611c4381611c0e565b8114611c4e57600080fd5b50565b600081359050611c6081611c3a565b92915050565b600060208284031215611c7c57611c7b611c04565b5b6000611c8a84828501611c51565b91505092915050565b60008115159050919050565b611ca881611c93565b82525050565b6000602082019050611cc36000830184611c9f565b92915050565b600081519050919050565b600082825260208201905092915050565b60005b83811015611d03578082015181840152602081019050611ce8565b60008484015250505050565b6000601f19601f8301169050919050565b6000611d2b82611cc9565b611d358185611cd4565b9350611d45818560208601611ce5565b611d4e81611d0f565b840191505092915050565b60006020820190508181036000830152611d738184611d20565b905092915050565b6000819050919050565b611d8e81611d7b565b8114611d9957600080fd5b50565b600081359050611dab81611d85565b92915050565b600060208284031215611dc757611dc6611c04565b5b6000611dd584828501611d9c565b91505092915050565b600073ffffffffffffffffffffffffffffffffffffffff82169050919050565b6000611e0982611dde565b9050919050565b611e1981611dfe565b82525050565b6000602082019050611e346000830184611e10565b92915050565b611e4381611dfe565b8114611e4e57600080fd5b50565b600081359050611e6081611e3a565b92915050565b60008060408385031215611e7d57611e7c611c04565b5b6000611e8b85828601611e51565b9250506020611e9c85828601611d9c565b9150509250929050565b600080600060608486031215611ebf57611ebe611c04565b5b6000611ecd86828701611e51565b9350506020611ede86828701611e51565b9250506040611eef86828701611d9c565b9150509250925092565b600060208284031215611f0f57611f0e611c04565b5b6000611f1d84828501611e51565b91505092915050565b611f2f81611d7b565b82525050565b6000602082019050611f4a6000830184611f26565b92915050565b611f5981611c93565b8114611f6457600080fd5b50565b600081359050611f7681611f50565b92915050565b60008060408385031215611f9357611f92611c04565b5b6000611fa185828601611e51565b9250506020611fb285828601611f67565b9150509250929050565b600080fd5b600080fd5b7f4e487b7100000000000000000000000000000000000000000000000000000000600052604160045260246000fd5b611ffe82611d0f565b810181811067ffffffffffffffff8211171561201d5761201c611fc6565b5b80604052505050565b6000612030611bfa565b905061203c8282611ff5565b919050565b600067ffffffffffffffff82111561205c5761205b611fc6565b5b61206582611d0f565b9050602081019050919050565b82818337600083830152505050565b600061209461208f84612041565b612026565b9050828152602081018484840111156120b0576120af611fc1565b5b6120bb848285612072565b509392505050565b600082601f8301126120d8576120d7611fbc565b5b81356120e8848260208601612081565b91505092915050565b6000806000806080858703121561210b5761210a611c04565b5b600061211987828801611e51565b945050602061212a87828801611e51565b935050604061213b87828801611d9c565b925050606085013567ffffffffffffffff81111561215c5761215b611c09565b5b612168878288016120c3565b91505092959194509250565b6000806040838503121561218b5761218a611c04565b5b600061219985828601611e51565b92505060206121aa85828601611e51565b9150509250929050565b600067ffffffffffffffff8211156121cf576121ce611fc6565b5b6121d882611d0f565b9050602081019050919050565b60006121f86121f3846121b4565b612026565b90508281526020810184848401111561221457612213611fc1565b5b61221f848285612072565b509392505050565b600082601f83011261223c5761223b611fbc565b5b813561224c8482602086016121e5565b91505092915050565b6000806040838503121561226c5761226b611c04565b5b600061227a85828601611e51565b925050602083013567ffffffffffffffff81111561229b5761229a611c09565b5b6122a785828601612227565b9150509250929050565b600080604083850312156122c8576122c7611c04565b5b60006122d685828601611d9c565b92505060206122e785828601611d9c565b9150509250929050565b7f4e487b7100000000000000000000000000000000000000000000000000000000600052602260045260246000fd5b6000600282049050600182168061233857607f821691505b60208210810361234b5761234a6122f1565b5b50919050565b60006060820190506123666000830186611e10565b6123736020830185611f26565b6123806040830184611e10565b949350505050565b7f496e73756666696369656e742066756e64730000000000000000000000000000600082015250565b60006123be601283611cd4565b91506123c982612388565b602082019050919050565b600060208201905081810360008301526123ed816123b1565b9050919050565b7f596f7520617265206e6f7420746865206f776e65720000000000000000000000600082015250565b600061242a601583611cd4565b9150612435826123f4565b602082019050919050565b600060208201905081810360008301526124598161241d565b9050919050565b600081905092915050565b600061247682611cc9565b6124808185612460565b9350612490818560208601611ce5565b80840191505092915050565b60006124a8828561246b565b91506124b4828461246b565b91508190509392505050565b60008190508160005260206000209050919050565b60006020601f8301049050919050565b600082821b905092915050565b6000600883026125227fffffffffffffffffffffffffffffffffffffffffffffffffffffffffffffffff826124e5565b61252c86836124e5565b95508019841693508086168417925050509392505050565b6000819050919050565b600061256961256461255f84611d7b565b612544565b611d7b565b9050919050565b6000819050919050565b6125838361254e565b61259761258f82612570565b8484546124f2565b825550505050565b600090565b6125ac61259f565b6125b781848461257a565b505050565b5b818110156125db576125d06000826125a4565b6001810190506125bd565b5050565b601f821115612620576125f1816124c0565b6125fa846124d5565b81016020851015612609578190505b61261d612615856124d5565b8301826125bc565b50505b505050565b600082821c905092915050565b600061264360001984600802612625565b1980831691505092915050565b600061265c8383612632565b9150826002028217905092915050565b61267582611cc9565b67ffffffffffffffff81111561268e5761268d611fc6565b5b6126988254612320565b6126a38282856125df565b600060209050601f8311600181146126d657600084156126c4578287015190505b6126ce8582612650565b865550612736565b601f1984166126e4866124c0565b60005b8281101561270c578489015182556001820191506020850194506020810190506126e7565b868310156127295784890151612725601f891682612632565b8355505b6001600288020188555050505b505050505050565b7f4e487b7100000000000000000000000000000000000000000000000000000000600052601160045260246000fd5b600061277882611d7b565b91507fffffffffffffffffffffffffffffffffffffffffffffffffffffffffffffffff82036127aa576127a961273e565b5b600182019050919050565b600081519050919050565b600082825260208201905092915050565b60006127dc826127b5565b6127e681856127c0565b93506127f6818560208601611ce5565b6127ff81611d0f565b840191505092915050565b600060808201905061281f6000830187611e10565b61282c6020830186611e10565b6128396040830185611f26565b818103606083015261284b81846127d1565b905095945050505050565b60008151905061286581611c3a565b92915050565b60006020828403121561288157612880611c04565b5b600061288f84828501612856565b91505092915050565b7f4e487b7100000000000000000000000000000000000000000000000000000000600052601260045260246000fd5b60006040820190506128dc6000830185611e10565b6128e96020830184611f26565b939250505056fea2646970667358221220c70bca0f155ccd9c1cd79858bf61b108803740e21411fabea7c20099f6f5c17664736f6c634300081b0033",
  "linkReferences": {},
  "deployedLinkReferences": {}
}